{
  "contracts/3_Ballot.sol": {
    "Chai": {
      "abi": [
        {
          "inputs": [],
          "stateMutability": "nonpayable",
          "type": "constructor"
        },
        {
          "inputs": [
            {
              "internalType": "string",
              "name": "name",
              "type": "string"
            },
            {
              "internalType": "string",
              "name": "message",
              "type": "string"
            }
          ],
          "name": "buyChai",
          "outputs": [],
          "stateMutability": "payable",
          "type": "function"
        },
        {
          "inputs": [],
          "name": "getMemos",
          "outputs": [
            {
              "components": [
                {
                  "internalType": "string",
                  "name": "name",
                  "type": "string"
                },
                {
                  "internalType": "string",
                  "name": "message",
                  "type": "string"
                },
                {
                  "internalType": "uint256",
                  "name": "timestamp",
                  "type": "uint256"
                },
                {
                  "internalType": "address",
                  "name": "from",
                  "type": "address"
                }
              ],
              "internalType": "struct Chai.Memo[]",
              "name": "",
              "type": "tuple[]"
            }
          ],
          "stateMutability": "view",
          "type": "function"
        }
      ],
      "devdoc": {
        "kind": "dev",
        "methods": {},
        "version": 1
      },
      "evm": {
        "assembly": "    /* \"contracts/3_Ballot.sol\":61:695  contract Chai{... */\n  mstore(0x40, 0x80)\n    /* \"contracts/3_Ballot.sol\":280:337  constructor(){... */\n  callvalue\n  dup1\n  iszero\n  tag_1\n  jumpi\n  0x00\n  dup1\n  revert\ntag_1:\n  pop\n    /* \"contracts/3_Ballot.sol\":319:329  msg.sender */\n  caller\n    /* \"contracts/3_Ballot.sol\":303:308  owner */\n  0x01\n  0x00\n    /* \"contracts/3_Ballot.sol\":303:330  owner =payable (msg.sender) */\n  0x0100\n  exp\n  dup2\n  sload\n  dup2\n  0xffffffffffffffffffffffffffffffffffffffff\n  mul\n  not\n  and\n  swap1\n  dup4\n  0xffffffffffffffffffffffffffffffffffffffff\n  and\n  mul\n  or\n  swap1\n  sstore\n  pop\n    /* \"contracts/3_Ballot.sol\":61:695  contract Chai{... */\n  dataSize(sub_0)\n  dup1\n  dataOffset(sub_0)\n  0x00\n  codecopy\n  0x00\n  return\nstop\n\nsub_0: assembly {\n        /* \"contracts/3_Ballot.sol\":61:695  contract Chai{... */\n      mstore(0x40, 0x80)\n      jumpi(tag_1, lt(calldatasize, 0x04))\n      shr(0xe0, calldataload(0x00))\n      dup1\n      0x6a13d859\n      eq\n      tag_2\n      jumpi\n      dup1\n      0x865c5172\n      eq\n      tag_3\n      jumpi\n    tag_1:\n      0x00\n      dup1\n      revert\n        /* \"contracts/3_Ballot.sol\":343:600  function buyChai(string calldata name, string calldata message) external payable {... */\n    tag_2:\n      tag_4\n      0x04\n      dup1\n      calldatasize\n      sub\n      dup2\n      add\n      swap1\n      tag_5\n      swap2\n      swap1\n      tag_6\n      jump\t// in\n    tag_5:\n      tag_7\n      jump\t// in\n    tag_4:\n      stop\n        /* \"contracts/3_Ballot.sol\":606:693  function getMemos() public  view  returns (Memo[] memory){... */\n    tag_3:\n      callvalue\n      dup1\n      iszero\n      tag_8\n      jumpi\n      0x00\n      dup1\n      revert\n    tag_8:\n      pop\n      tag_9\n      tag_10\n      jump\t// in\n    tag_9:\n      mload(0x40)\n      tag_11\n      swap2\n      swap1\n      tag_12\n      jump\t// in\n    tag_11:\n      mload(0x40)\n      dup1\n      swap2\n      sub\n      swap1\n      return\n        /* \"contracts/3_Ballot.sol\":343:600  function buyChai(string calldata name, string calldata message) external payable {... */\n    tag_7:\n        /* \"contracts/3_Ballot.sol\":453:454  0 */\n      0x00\n        /* \"contracts/3_Ballot.sol\":443:452  msg.value */\n      callvalue\n        /* \"contracts/3_Ballot.sol\":443:454  msg.value>0 */\n      gt\n        /* \"contracts/3_Ballot.sol\":435:487  require(msg.value>0, \"Please amount cannot be zero\") */\n      tag_14\n      jumpi\n      mload(0x40)\n      0x08c379a000000000000000000000000000000000000000000000000000000000\n      dup2\n      mstore\n      0x04\n      add\n      tag_15\n      swap1\n      tag_16\n      jump\t// in\n    tag_15:\n      mload(0x40)\n      dup1\n      swap2\n      sub\n      swap1\n      revert\n    tag_14:\n        /* \"contracts/3_Ballot.sol\":497:502  owner */\n      0x01\n      0x00\n      swap1\n      sload\n      swap1\n      0x0100\n      exp\n      swap1\n      div\n      0xffffffffffffffffffffffffffffffffffffffff\n      and\n        /* \"contracts/3_Ballot.sol\":497:511  owner.transfer */\n      0xffffffffffffffffffffffffffffffffffffffff\n      and\n        /* \"contracts/3_Ballot.sol\":497:522  owner.transfer(msg.value) */\n      0x08fc\n        /* \"contracts/3_Ballot.sol\":512:521  msg.value */\n      callvalue\n        /* \"contracts/3_Ballot.sol\":497:522  owner.transfer(msg.value) */\n      swap1\n      dup2\n      iszero\n      mul\n      swap1\n      mload(0x40)\n      0x00\n      mload(0x40)\n      dup1\n      dup4\n      sub\n      dup2\n      dup6\n      dup9\n      dup9\n      call\n      swap4\n      pop\n      pop\n      pop\n      pop\n      iszero\n      dup1\n      iszero\n      tag_18\n      jumpi\n      returndatasize\n      0x00\n      dup1\n      returndatacopy\n      revert(0x00, returndatasize)\n    tag_18:\n      pop\n        /* \"contracts/3_Ballot.sol\":533:538  memos */\n      0x00\n        /* \"contracts/3_Ballot.sol\":544:591  Memo(name,message, block.timestamp, msg.sender) */\n      mload(0x40)\n      dup1\n      0x80\n      add\n      0x40\n      mstore\n      dup1\n        /* \"contracts/3_Ballot.sol\":549:553  name */\n      dup7\n      dup7\n        /* \"contracts/3_Ballot.sol\":544:591  Memo(name,message, block.timestamp, msg.sender) */\n      dup1\n      dup1\n      0x1f\n      add\n      0x20\n      dup1\n      swap2\n      div\n      mul\n      0x20\n      add\n      mload(0x40)\n      swap1\n      dup2\n      add\n      0x40\n      mstore\n      dup1\n      swap4\n      swap3\n      swap2\n      swap1\n      dup2\n      dup2\n      mstore\n      0x20\n      add\n      dup4\n      dup4\n      dup1\n      dup3\n      dup5\n      calldatacopy\n      0x00\n      dup2\n      dup5\n      add\n      mstore\n      not(0x1f)\n      0x1f\n      dup3\n      add\n      and\n      swap1\n      pop\n      dup1\n      dup4\n      add\n      swap3\n      pop\n      pop\n      pop\n      pop\n      pop\n      pop\n      pop\n      dup2\n      mstore\n      0x20\n      add\n        /* \"contracts/3_Ballot.sol\":554:561  message */\n      dup5\n      dup5\n        /* \"contracts/3_Ballot.sol\":544:591  Memo(name,message, block.timestamp, msg.sender) */\n      dup1\n      dup1\n      0x1f\n      add\n      0x20\n      dup1\n      swap2\n      div\n      mul\n      0x20\n      add\n      mload(0x40)\n      swap1\n      dup2\n      add\n      0x40\n      mstore\n      dup1\n      swap4\n      swap3\n      swap2\n      swap1\n      dup2\n      dup2\n      mstore\n      0x20\n      add\n      dup4\n      dup4\n      dup1\n      dup3\n      dup5\n      calldatacopy\n      0x00\n      dup2\n      dup5\n      add\n      mstore\n      not(0x1f)\n      0x1f\n      dup3\n      add\n      and\n      swap1\n      pop\n      dup1\n      dup4\n      add\n      swap3\n      pop\n      pop\n      pop\n      pop\n      pop\n      pop\n      pop\n      dup2\n      mstore\n      0x20\n      add\n        /* \"contracts/3_Ballot.sol\":563:578  block.timestamp */\n      timestamp\n        /* \"contracts/3_Ballot.sol\":544:591  Memo(name,message, block.timestamp, msg.sender) */\n      dup2\n      mstore\n      0x20\n      add\n        /* \"contracts/3_Ballot.sol\":580:590  msg.sender */\n      caller\n        /* \"contracts/3_Ballot.sol\":544:591  Memo(name,message, block.timestamp, msg.sender) */\n      0xffffffffffffffffffffffffffffffffffffffff\n      and\n      dup2\n      mstore\n      pop\n        /* \"contracts/3_Ballot.sol\":533:592  memos.push(Memo(name,message, block.timestamp, msg.sender)) */\n      swap1\n      dup1\n      0x01\n      dup2\n      sload\n      add\n      dup1\n      dup3\n      sstore\n      dup1\n      swap2\n      pop\n      pop\n      0x01\n      swap1\n      sub\n      swap1\n      0x00\n      mstore\n      keccak256(0x00, 0x20)\n      swap1\n      0x04\n      mul\n      add\n      0x00\n      swap1\n      swap2\n      swap1\n      swap2\n      swap1\n      swap2\n      pop\n      0x00\n      dup3\n      add\n      mload\n      dup2\n      0x00\n      add\n      swap1\n      dup2\n      tag_20\n      swap2\n      swap1\n      tag_21\n      jump\t// in\n    tag_20:\n      pop\n      0x20\n      dup3\n      add\n      mload\n      dup2\n      0x01\n      add\n      swap1\n      dup2\n      tag_22\n      swap2\n      swap1\n      tag_21\n      jump\t// in\n    tag_22:\n      pop\n      0x40\n      dup3\n      add\n      mload\n      dup2\n      0x02\n      add\n      sstore\n      0x60\n      dup3\n      add\n      mload\n      dup2\n      0x03\n      add\n      exp(0x0100, 0x00)\n      dup2\n      sload\n      dup2\n      0xffffffffffffffffffffffffffffffffffffffff\n      mul\n      not\n      and\n      swap1\n      dup4\n      0xffffffffffffffffffffffffffffffffffffffff\n      and\n      mul\n      or\n      swap1\n      sstore\n      pop\n      pop\n      pop\n        /* \"contracts/3_Ballot.sol\":343:600  function buyChai(string calldata name, string calldata message) external payable {... */\n      pop\n      pop\n      pop\n      pop\n      jump\t// out\n        /* \"contracts/3_Ballot.sol\":606:693  function getMemos() public  view  returns (Memo[] memory){... */\n    tag_10:\n        /* \"contracts/3_Ballot.sol\":649:662  Memo[] memory */\n      0x60\n        /* \"contracts/3_Ballot.sol\":681:686  memos */\n      0x00\n        /* \"contracts/3_Ballot.sol\":673:686  return  memos */\n      dup1\n      sload\n      dup1\n      0x20\n      mul\n      0x20\n      add\n      mload(0x40)\n      swap1\n      dup2\n      add\n      0x40\n      mstore\n      dup1\n      swap3\n      swap2\n      swap1\n      dup2\n      dup2\n      mstore\n      0x20\n      add\n      0x00\n      swap1\n    tag_24:\n      dup3\n      dup3\n      lt\n      iszero\n      tag_25\n      jumpi\n      dup4\n      dup3\n      swap1\n      0x00\n      mstore\n      keccak256(0x00, 0x20)\n      swap1\n      0x04\n      mul\n      add\n      mload(0x40)\n      dup1\n      0x80\n      add\n      0x40\n      mstore\n      swap1\n      dup2\n      0x00\n      dup3\n      add\n      dup1\n      sload\n      tag_27\n      swap1\n      tag_28\n      jump\t// in\n    tag_27:\n      dup1\n      0x1f\n      add\n      0x20\n      dup1\n      swap2\n      div\n      mul\n      0x20\n      add\n      mload(0x40)\n      swap1\n      dup2\n      add\n      0x40\n      mstore\n      dup1\n      swap3\n      swap2\n      swap1\n      dup2\n      dup2\n      mstore\n      0x20\n      add\n      dup3\n      dup1\n      sload\n      tag_29\n      swap1\n      tag_28\n      jump\t// in\n    tag_29:\n      dup1\n      iszero\n      tag_30\n      jumpi\n      dup1\n      0x1f\n      lt\n      tag_31\n      jumpi\n      0x0100\n      dup1\n      dup4\n      sload\n      div\n      mul\n      dup4\n      mstore\n      swap2\n      0x20\n      add\n      swap2\n      jump(tag_30)\n    tag_31:\n      dup3\n      add\n      swap2\n      swap1\n      0x00\n      mstore\n      keccak256(0x00, 0x20)\n      swap1\n    tag_32:\n      dup2\n      sload\n      dup2\n      mstore\n      swap1\n      0x01\n      add\n      swap1\n      0x20\n      add\n      dup1\n      dup4\n      gt\n      tag_32\n      jumpi\n      dup3\n      swap1\n      sub\n      0x1f\n      and\n      dup3\n      add\n      swap2\n    tag_30:\n      pop\n      pop\n      pop\n      pop\n      pop\n      dup2\n      mstore\n      0x20\n      add\n      0x01\n      dup3\n      add\n      dup1\n      sload\n      tag_33\n      swap1\n      tag_28\n      jump\t// in\n    tag_33:\n      dup1\n      0x1f\n      add\n      0x20\n      dup1\n      swap2\n      div\n      mul\n      0x20\n      add\n      mload(0x40)\n      swap1\n      dup2\n      add\n      0x40\n      mstore\n      dup1\n      swap3\n      swap2\n      swap1\n      dup2\n      dup2\n      mstore\n      0x20\n      add\n      dup3\n      dup1\n      sload\n      tag_34\n      swap1\n      tag_28\n      jump\t// in\n    tag_34:\n      dup1\n      iszero\n      tag_35\n      jumpi\n      dup1\n      0x1f\n      lt\n      tag_36\n      jumpi\n      0x0100\n      dup1\n      dup4\n      sload\n      div\n      mul\n      dup4\n      mstore\n      swap2\n      0x20\n      add\n      swap2\n      jump(tag_35)\n    tag_36:\n      dup3\n      add\n      swap2\n      swap1\n      0x00\n      mstore\n      keccak256(0x00, 0x20)\n      swap1\n    tag_37:\n      dup2\n      sload\n      dup2\n      mstore\n      swap1\n      0x01\n      add\n      swap1\n      0x20\n      add\n      dup1\n      dup4\n      gt\n      tag_37\n      jumpi\n      dup3\n      swap1\n      sub\n      0x1f\n      and\n      dup3\n      add\n      swap2\n    tag_35:\n      pop\n      pop\n      pop\n      pop\n      pop\n      dup2\n      mstore\n      0x20\n      add\n      0x02\n      dup3\n      add\n      sload\n      dup2\n      mstore\n      0x20\n      add\n      0x03\n      dup3\n      add\n      0x00\n      swap1\n      sload\n      swap1\n      0x0100\n      exp\n      swap1\n      div\n      0xffffffffffffffffffffffffffffffffffffffff\n      and\n      0xffffffffffffffffffffffffffffffffffffffff\n      and\n      0xffffffffffffffffffffffffffffffffffffffff\n      and\n      dup2\n      mstore\n      pop\n      pop\n      dup2\n      mstore\n      0x20\n      add\n      swap1\n      0x01\n      add\n      swap1\n      jump(tag_24)\n    tag_25:\n      pop\n      pop\n      pop\n      pop\n      swap1\n      pop\n        /* \"contracts/3_Ballot.sol\":606:693  function getMemos() public  view  returns (Memo[] memory){... */\n      swap1\n      jump\t// out\n        /* \"#utility.yul\":88:205   */\n    tag_39:\n        /* \"#utility.yul\":197:198   */\n      0x00\n        /* \"#utility.yul\":194:195   */\n      dup1\n        /* \"#utility.yul\":187:199   */\n      revert\n        /* \"#utility.yul\":211:328   */\n    tag_40:\n        /* \"#utility.yul\":320:321   */\n      0x00\n        /* \"#utility.yul\":317:318   */\n      dup1\n        /* \"#utility.yul\":310:322   */\n      revert\n        /* \"#utility.yul\":334:451   */\n    tag_41:\n        /* \"#utility.yul\":443:444   */\n      0x00\n        /* \"#utility.yul\":440:441   */\n      dup1\n        /* \"#utility.yul\":433:445   */\n      revert\n        /* \"#utility.yul\":457:574   */\n    tag_42:\n        /* \"#utility.yul\":566:567   */\n      0x00\n        /* \"#utility.yul\":563:564   */\n      dup1\n        /* \"#utility.yul\":556:568   */\n      revert\n        /* \"#utility.yul\":580:697   */\n    tag_43:\n        /* \"#utility.yul\":689:690   */\n      0x00\n        /* \"#utility.yul\":686:687   */\n      dup1\n        /* \"#utility.yul\":679:691   */\n      revert\n        /* \"#utility.yul\":717:1270   */\n    tag_44:\n        /* \"#utility.yul\":775:783   */\n      0x00\n        /* \"#utility.yul\":785:791   */\n      dup1\n        /* \"#utility.yul\":835:838   */\n      dup4\n        /* \"#utility.yul\":828:832   */\n      0x1f\n        /* \"#utility.yul\":820:826   */\n      dup5\n        /* \"#utility.yul\":816:833   */\n      add\n        /* \"#utility.yul\":812:839   */\n      slt\n        /* \"#utility.yul\":802:924   */\n      tag_90\n      jumpi\n        /* \"#utility.yul\":843:922   */\n      tag_91\n      tag_41\n      jump\t// in\n    tag_91:\n        /* \"#utility.yul\":802:924   */\n    tag_90:\n        /* \"#utility.yul\":956:962   */\n      dup3\n        /* \"#utility.yul\":943:963   */\n      calldataload\n        /* \"#utility.yul\":933:963   */\n      swap1\n      pop\n        /* \"#utility.yul\":986:1004   */\n      0xffffffffffffffff\n        /* \"#utility.yul\":978:984   */\n      dup2\n        /* \"#utility.yul\":975:1005   */\n      gt\n        /* \"#utility.yul\":972:1089   */\n      iszero\n      tag_92\n      jumpi\n        /* \"#utility.yul\":1008:1087   */\n      tag_93\n      tag_42\n      jump\t// in\n    tag_93:\n        /* \"#utility.yul\":972:1089   */\n    tag_92:\n        /* \"#utility.yul\":1122:1126   */\n      0x20\n        /* \"#utility.yul\":1114:1120   */\n      dup4\n        /* \"#utility.yul\":1110:1127   */\n      add\n        /* \"#utility.yul\":1098:1127   */\n      swap2\n      pop\n        /* \"#utility.yul\":1176:1179   */\n      dup4\n        /* \"#utility.yul\":1168:1172   */\n      0x01\n        /* \"#utility.yul\":1160:1166   */\n      dup3\n        /* \"#utility.yul\":1156:1173   */\n      mul\n        /* \"#utility.yul\":1146:1154   */\n      dup4\n        /* \"#utility.yul\":1142:1174   */\n      add\n        /* \"#utility.yul\":1139:1180   */\n      gt\n        /* \"#utility.yul\":1136:1264   */\n      iszero\n      tag_94\n      jumpi\n        /* \"#utility.yul\":1183:1262   */\n      tag_95\n      tag_43\n      jump\t// in\n    tag_95:\n        /* \"#utility.yul\":1136:1264   */\n    tag_94:\n        /* \"#utility.yul\":717:1270   */\n      swap3\n      pop\n      swap3\n      swap1\n      pop\n      jump\t// out\n        /* \"#utility.yul\":1276:2150   */\n    tag_6:\n        /* \"#utility.yul\":1368:1374   */\n      0x00\n        /* \"#utility.yul\":1376:1382   */\n      dup1\n        /* \"#utility.yul\":1384:1390   */\n      0x00\n        /* \"#utility.yul\":1392:1398   */\n      dup1\n        /* \"#utility.yul\":1441:1443   */\n      0x40\n        /* \"#utility.yul\":1429:1438   */\n      dup6\n        /* \"#utility.yul\":1420:1427   */\n      dup8\n        /* \"#utility.yul\":1416:1439   */\n      sub\n        /* \"#utility.yul\":1412:1444   */\n      slt\n        /* \"#utility.yul\":1409:1528   */\n      iszero\n      tag_97\n      jumpi\n        /* \"#utility.yul\":1447:1526   */\n      tag_98\n      tag_39\n      jump\t// in\n    tag_98:\n        /* \"#utility.yul\":1409:1528   */\n    tag_97:\n        /* \"#utility.yul\":1595:1596   */\n      0x00\n        /* \"#utility.yul\":1584:1593   */\n      dup6\n        /* \"#utility.yul\":1580:1597   */\n      add\n        /* \"#utility.yul\":1567:1598   */\n      calldataload\n        /* \"#utility.yul\":1625:1643   */\n      0xffffffffffffffff\n        /* \"#utility.yul\":1617:1623   */\n      dup2\n        /* \"#utility.yul\":1614:1644   */\n      gt\n        /* \"#utility.yul\":1611:1728   */\n      iszero\n      tag_99\n      jumpi\n        /* \"#utility.yul\":1647:1726   */\n      tag_100\n      tag_40\n      jump\t// in\n    tag_100:\n        /* \"#utility.yul\":1611:1728   */\n    tag_99:\n        /* \"#utility.yul\":1760:1825   */\n      tag_101\n        /* \"#utility.yul\":1817:1824   */\n      dup8\n        /* \"#utility.yul\":1808:1814   */\n      dup3\n        /* \"#utility.yul\":1797:1806   */\n      dup9\n        /* \"#utility.yul\":1793:1815   */\n      add\n        /* \"#utility.yul\":1760:1825   */\n      tag_44\n      jump\t// in\n    tag_101:\n        /* \"#utility.yul\":1742:1825   */\n      swap5\n      pop\n      swap5\n      pop\n        /* \"#utility.yul\":1538:1835   */\n      pop\n        /* \"#utility.yul\":1902:1904   */\n      0x20\n        /* \"#utility.yul\":1891:1900   */\n      dup6\n        /* \"#utility.yul\":1887:1905   */\n      add\n        /* \"#utility.yul\":1874:1906   */\n      calldataload\n        /* \"#utility.yul\":1933:1951   */\n      0xffffffffffffffff\n        /* \"#utility.yul\":1925:1931   */\n      dup2\n        /* \"#utility.yul\":1922:1952   */\n      gt\n        /* \"#utility.yul\":1919:2036   */\n      iszero\n      tag_102\n      jumpi\n        /* \"#utility.yul\":1955:2034   */\n      tag_103\n      tag_40\n      jump\t// in\n    tag_103:\n        /* \"#utility.yul\":1919:2036   */\n    tag_102:\n        /* \"#utility.yul\":2068:2133   */\n      tag_104\n        /* \"#utility.yul\":2125:2132   */\n      dup8\n        /* \"#utility.yul\":2116:2122   */\n      dup3\n        /* \"#utility.yul\":2105:2114   */\n      dup9\n        /* \"#utility.yul\":2101:2123   */\n      add\n        /* \"#utility.yul\":2068:2133   */\n      tag_44\n      jump\t// in\n    tag_104:\n        /* \"#utility.yul\":2050:2133   */\n      swap3\n      pop\n      swap3\n      pop\n        /* \"#utility.yul\":1845:2143   */\n      pop\n        /* \"#utility.yul\":1276:2150   */\n      swap3\n      swap6\n      swap2\n      swap5\n      pop\n      swap3\n      pop\n      jump\t// out\n        /* \"#utility.yul\":2156:2290   */\n    tag_45:\n        /* \"#utility.yul\":2243:2249   */\n      0x00\n        /* \"#utility.yul\":2277:2282   */\n      dup2\n        /* \"#utility.yul\":2271:2283   */\n      mload\n        /* \"#utility.yul\":2261:2283   */\n      swap1\n      pop\n        /* \"#utility.yul\":2156:2290   */\n      swap2\n      swap1\n      pop\n      jump\t// out\n        /* \"#utility.yul\":2296:2500   */\n    tag_46:\n        /* \"#utility.yul\":2415:2426   */\n      0x00\n        /* \"#utility.yul\":2449:2455   */\n      dup3\n        /* \"#utility.yul\":2444:2447   */\n      dup3\n        /* \"#utility.yul\":2437:2456   */\n      mstore\n        /* \"#utility.yul\":2489:2493   */\n      0x20\n        /* \"#utility.yul\":2484:2487   */\n      dup3\n        /* \"#utility.yul\":2480:2494   */\n      add\n        /* \"#utility.yul\":2465:2494   */\n      swap1\n      pop\n        /* \"#utility.yul\":2296:2500   */\n      swap3\n      swap2\n      pop\n      pop\n      jump\t// out\n        /* \"#utility.yul\":2506:2658   */\n    tag_47:\n        /* \"#utility.yul\":2593:2597   */\n      0x00\n        /* \"#utility.yul\":2616:2619   */\n      dup2\n        /* \"#utility.yul\":2608:2619   */\n      swap1\n      pop\n        /* \"#utility.yul\":2646:2650   */\n      0x20\n        /* \"#utility.yul\":2641:2644   */\n      dup3\n        /* \"#utility.yul\":2637:2651   */\n      add\n        /* \"#utility.yul\":2629:2651   */\n      swap1\n      pop\n        /* \"#utility.yul\":2506:2658   */\n      swap2\n      swap1\n      pop\n      jump\t// out\n        /* \"#utility.yul\":2664:2763   */\n    tag_48:\n        /* \"#utility.yul\":2716:2722   */\n      0x00\n        /* \"#utility.yul\":2750:2755   */\n      dup2\n        /* \"#utility.yul\":2744:2756   */\n      mload\n        /* \"#utility.yul\":2734:2756   */\n      swap1\n      pop\n        /* \"#utility.yul\":2664:2763   */\n      swap2\n      swap1\n      pop\n      jump\t// out\n        /* \"#utility.yul\":2769:2928   */\n    tag_49:\n        /* \"#utility.yul\":2843:2854   */\n      0x00\n        /* \"#utility.yul\":2877:2883   */\n      dup3\n        /* \"#utility.yul\":2872:2875   */\n      dup3\n        /* \"#utility.yul\":2865:2884   */\n      mstore\n        /* \"#utility.yul\":2917:2921   */\n      0x20\n        /* \"#utility.yul\":2912:2915   */\n      dup3\n        /* \"#utility.yul\":2908:2922   */\n      add\n        /* \"#utility.yul\":2893:2922   */\n      swap1\n      pop\n        /* \"#utility.yul\":2769:2928   */\n      swap3\n      swap2\n      pop\n      pop\n      jump\t// out\n        /* \"#utility.yul\":2934:3073   */\n    tag_50:\n        /* \"#utility.yul\":3023:3029   */\n      dup3\n        /* \"#utility.yul\":3018:3021   */\n      dup2\n        /* \"#utility.yul\":3013:3016   */\n      dup4\n        /* \"#utility.yul\":3007:3030   */\n      mcopy\n        /* \"#utility.yul\":3064:3065   */\n      0x00\n        /* \"#utility.yul\":3055:3061   */\n      dup4\n        /* \"#utility.yul\":3050:3053   */\n      dup4\n        /* \"#utility.yul\":3046:3062   */\n      add\n        /* \"#utility.yul\":3039:3066   */\n      mstore\n        /* \"#utility.yul\":2934:3073   */\n      pop\n      pop\n      pop\n      jump\t// out\n        /* \"#utility.yul\":3079:3181   */\n    tag_51:\n        /* \"#utility.yul\":3120:3126   */\n      0x00\n        /* \"#utility.yul\":3171:3173   */\n      0x1f\n        /* \"#utility.yul\":3167:3174   */\n      not\n        /* \"#utility.yul\":3162:3164   */\n      0x1f\n        /* \"#utility.yul\":3155:3160   */\n      dup4\n        /* \"#utility.yul\":3151:3165   */\n      add\n        /* \"#utility.yul\":3147:3175   */\n      and\n        /* \"#utility.yul\":3137:3175   */\n      swap1\n      pop\n        /* \"#utility.yul\":3079:3181   */\n      swap2\n      swap1\n      pop\n      jump\t// out\n        /* \"#utility.yul\":3187:3544   */\n    tag_52:\n        /* \"#utility.yul\":3265:3268   */\n      0x00\n        /* \"#utility.yul\":3293:3332   */\n      tag_113\n        /* \"#utility.yul\":3326:3331   */\n      dup3\n        /* \"#utility.yul\":3293:3332   */\n      tag_48\n      jump\t// in\n    tag_113:\n        /* \"#utility.yul\":3348:3409   */\n      tag_114\n        /* \"#utility.yul\":3402:3408   */\n      dup2\n        /* \"#utility.yul\":3397:3400   */\n      dup6\n        /* \"#utility.yul\":3348:3409   */\n      tag_49\n      jump\t// in\n    tag_114:\n        /* \"#utility.yul\":3341:3409   */\n      swap4\n      pop\n        /* \"#utility.yul\":3418:3483   */\n      tag_115\n        /* \"#utility.yul\":3476:3482   */\n      dup2\n        /* \"#utility.yul\":3471:3474   */\n      dup6\n        /* \"#utility.yul\":3464:3468   */\n      0x20\n        /* \"#utility.yul\":3457:3462   */\n      dup7\n        /* \"#utility.yul\":3453:3469   */\n      add\n        /* \"#utility.yul\":3418:3483   */\n      tag_50\n      jump\t// in\n    tag_115:\n        /* \"#utility.yul\":3508:3537   */\n      tag_116\n        /* \"#utility.yul\":3530:3536   */\n      dup2\n        /* \"#utility.yul\":3508:3537   */\n      tag_51\n      jump\t// in\n    tag_116:\n        /* \"#utility.yul\":3503:3506   */\n      dup5\n        /* \"#utility.yul\":3499:3538   */\n      add\n        /* \"#utility.yul\":3492:3538   */\n      swap2\n      pop\n        /* \"#utility.yul\":3269:3544   */\n      pop\n        /* \"#utility.yul\":3187:3544   */\n      swap3\n      swap2\n      pop\n      pop\n      jump\t// out\n        /* \"#utility.yul\":3550:3627   */\n    tag_53:\n        /* \"#utility.yul\":3587:3594   */\n      0x00\n        /* \"#utility.yul\":3616:3621   */\n      dup2\n        /* \"#utility.yul\":3605:3621   */\n      swap1\n      pop\n        /* \"#utility.yul\":3550:3627   */\n      swap2\n      swap1\n      pop\n      jump\t// out\n        /* \"#utility.yul\":3633:3741   */\n    tag_54:\n        /* \"#utility.yul\":3710:3734   */\n      tag_119\n        /* \"#utility.yul\":3728:3733   */\n      dup2\n        /* \"#utility.yul\":3710:3734   */\n      tag_53\n      jump\t// in\n    tag_119:\n        /* \"#utility.yul\":3705:3708   */\n      dup3\n        /* \"#utility.yul\":3698:3735   */\n      mstore\n        /* \"#utility.yul\":3633:3741   */\n      pop\n      pop\n      jump\t// out\n        /* \"#utility.yul\":3747:3873   */\n    tag_55:\n        /* \"#utility.yul\":3784:3791   */\n      0x00\n        /* \"#utility.yul\":3824:3866   */\n      0xffffffffffffffffffffffffffffffffffffffff\n        /* \"#utility.yul\":3817:3822   */\n      dup3\n        /* \"#utility.yul\":3813:3867   */\n      and\n        /* \"#utility.yul\":3802:3867   */\n      swap1\n      pop\n        /* \"#utility.yul\":3747:3873   */\n      swap2\n      swap1\n      pop\n      jump\t// out\n        /* \"#utility.yul\":3879:3975   */\n    tag_56:\n        /* \"#utility.yul\":3916:3923   */\n      0x00\n        /* \"#utility.yul\":3945:3969   */\n      tag_122\n        /* \"#utility.yul\":3963:3968   */\n      dup3\n        /* \"#utility.yul\":3945:3969   */\n      tag_55\n      jump\t// in\n    tag_122:\n        /* \"#utility.yul\":3934:3969   */\n      swap1\n      pop\n        /* \"#utility.yul\":3879:3975   */\n      swap2\n      swap1\n      pop\n      jump\t// out\n        /* \"#utility.yul\":3981:4089   */\n    tag_57:\n        /* \"#utility.yul\":4058:4082   */\n      tag_124\n        /* \"#utility.yul\":4076:4081   */\n      dup2\n        /* \"#utility.yul\":4058:4082   */\n      tag_56\n      jump\t// in\n    tag_124:\n        /* \"#utility.yul\":4053:4056   */\n      dup3\n        /* \"#utility.yul\":4046:4083   */\n      mstore\n        /* \"#utility.yul\":3981:4089   */\n      pop\n      pop\n      jump\t// out\n        /* \"#utility.yul\":4139:5152   */\n    tag_58:\n        /* \"#utility.yul\":4238:4241   */\n      0x00\n        /* \"#utility.yul\":4274:4278   */\n      0x80\n        /* \"#utility.yul\":4269:4272   */\n      dup4\n        /* \"#utility.yul\":4265:4279   */\n      add\n        /* \"#utility.yul\":4361:4365   */\n      0x00\n        /* \"#utility.yul\":4354:4359   */\n      dup4\n        /* \"#utility.yul\":4350:4366   */\n      add\n        /* \"#utility.yul\":4344:4367   */\n      mload\n        /* \"#utility.yul\":4414:4417   */\n      dup5\n        /* \"#utility.yul\":4408:4412   */\n      dup3\n        /* \"#utility.yul\":4404:4418   */\n      sub\n        /* \"#utility.yul\":4397:4401   */\n      0x00\n        /* \"#utility.yul\":4392:4395   */\n      dup7\n        /* \"#utility.yul\":4388:4402   */\n      add\n        /* \"#utility.yul\":4381:4419   */\n      mstore\n        /* \"#utility.yul\":4440:4513   */\n      tag_126\n        /* \"#utility.yul\":4508:4512   */\n      dup3\n        /* \"#utility.yul\":4494:4506   */\n      dup3\n        /* \"#utility.yul\":4440:4513   */\n      tag_52\n      jump\t// in\n    tag_126:\n        /* \"#utility.yul\":4432:4513   */\n      swap2\n      pop\n        /* \"#utility.yul\":4289:4524   */\n      pop\n        /* \"#utility.yul\":4609:4613   */\n      0x20\n        /* \"#utility.yul\":4602:4607   */\n      dup4\n        /* \"#utility.yul\":4598:4614   */\n      add\n        /* \"#utility.yul\":4592:4615   */\n      mload\n        /* \"#utility.yul\":4662:4665   */\n      dup5\n        /* \"#utility.yul\":4656:4660   */\n      dup3\n        /* \"#utility.yul\":4652:4666   */\n      sub\n        /* \"#utility.yul\":4645:4649   */\n      0x20\n        /* \"#utility.yul\":4640:4643   */\n      dup7\n        /* \"#utility.yul\":4636:4650   */\n      add\n        /* \"#utility.yul\":4629:4667   */\n      mstore\n        /* \"#utility.yul\":4688:4761   */\n      tag_127\n        /* \"#utility.yul\":4756:4760   */\n      dup3\n        /* \"#utility.yul\":4742:4754   */\n      dup3\n        /* \"#utility.yul\":4688:4761   */\n      tag_52\n      jump\t// in\n    tag_127:\n        /* \"#utility.yul\":4680:4761   */\n      swap2\n      pop\n        /* \"#utility.yul\":4534:4772   */\n      pop\n        /* \"#utility.yul\":4859:4863   */\n      0x40\n        /* \"#utility.yul\":4852:4857   */\n      dup4\n        /* \"#utility.yul\":4848:4864   */\n      add\n        /* \"#utility.yul\":4842:4865   */\n      mload\n        /* \"#utility.yul\":4878:4941   */\n      tag_128\n        /* \"#utility.yul\":4935:4939   */\n      0x40\n        /* \"#utility.yul\":4930:4933   */\n      dup7\n        /* \"#utility.yul\":4926:4940   */\n      add\n        /* \"#utility.yul\":4912:4924   */\n      dup3\n        /* \"#utility.yul\":4878:4941   */\n      tag_54\n      jump\t// in\n    tag_128:\n        /* \"#utility.yul\":4782:4951   */\n      pop\n        /* \"#utility.yul\":5033:5037   */\n      0x60\n        /* \"#utility.yul\":5026:5031   */\n      dup4\n        /* \"#utility.yul\":5022:5038   */\n      add\n        /* \"#utility.yul\":5016:5039   */\n      mload\n        /* \"#utility.yul\":5052:5115   */\n      tag_129\n        /* \"#utility.yul\":5109:5113   */\n      0x60\n        /* \"#utility.yul\":5104:5107   */\n      dup7\n        /* \"#utility.yul\":5100:5114   */\n      add\n        /* \"#utility.yul\":5086:5098   */\n      dup3\n        /* \"#utility.yul\":5052:5115   */\n      tag_57\n      jump\t// in\n    tag_129:\n        /* \"#utility.yul\":4961:5125   */\n      pop\n        /* \"#utility.yul\":5142:5146   */\n      dup1\n        /* \"#utility.yul\":5135:5146   */\n      swap2\n      pop\n        /* \"#utility.yul\":4243:5152   */\n      pop\n        /* \"#utility.yul\":4139:5152   */\n      swap3\n      swap2\n      pop\n      pop\n      jump\t// out\n        /* \"#utility.yul\":5158:5394   */\n    tag_59:\n        /* \"#utility.yul\":5267:5277   */\n      0x00\n        /* \"#utility.yul\":5302:5388   */\n      tag_131\n        /* \"#utility.yul\":5384:5387   */\n      dup4\n        /* \"#utility.yul\":5376:5382   */\n      dup4\n        /* \"#utility.yul\":5302:5388   */\n      tag_58\n      jump\t// in\n    tag_131:\n        /* \"#utility.yul\":5288:5388   */\n      swap1\n      pop\n        /* \"#utility.yul\":5158:5394   */\n      swap3\n      swap2\n      pop\n      pop\n      jump\t// out\n        /* \"#utility.yul\":5400:5533   */\n    tag_60:\n        /* \"#utility.yul\":5490:5494   */\n      0x00\n        /* \"#utility.yul\":5522:5526   */\n      0x20\n        /* \"#utility.yul\":5517:5520   */\n      dup3\n        /* \"#utility.yul\":5513:5527   */\n      add\n        /* \"#utility.yul\":5505:5527   */\n      swap1\n      pop\n        /* \"#utility.yul\":5400:5533   */\n      swap2\n      swap1\n      pop\n      jump\t// out\n        /* \"#utility.yul\":5587:6658   */\n    tag_61:\n        /* \"#utility.yul\":5746:5749   */\n      0x00\n        /* \"#utility.yul\":5775:5849   */\n      tag_134\n        /* \"#utility.yul\":5843:5848   */\n      dup3\n        /* \"#utility.yul\":5775:5849   */\n      tag_45\n      jump\t// in\n    tag_134:\n        /* \"#utility.yul\":5865:5971   */\n      tag_135\n        /* \"#utility.yul\":5964:5970   */\n      dup2\n        /* \"#utility.yul\":5959:5962   */\n      dup6\n        /* \"#utility.yul\":5865:5971   */\n      tag_46\n      jump\t// in\n    tag_135:\n        /* \"#utility.yul\":5858:5971   */\n      swap4\n      pop\n        /* \"#utility.yul\":5997:6000   */\n      dup4\n        /* \"#utility.yul\":6042:6046   */\n      0x20\n        /* \"#utility.yul\":6034:6040   */\n      dup3\n        /* \"#utility.yul\":6030:6047   */\n      mul\n        /* \"#utility.yul\":6025:6028   */\n      dup6\n        /* \"#utility.yul\":6021:6048   */\n      add\n        /* \"#utility.yul\":6072:6148   */\n      tag_136\n        /* \"#utility.yul\":6142:6147   */\n      dup6\n        /* \"#utility.yul\":6072:6148   */\n      tag_47\n      jump\t// in\n    tag_136:\n        /* \"#utility.yul\":6171:6178   */\n      dup1\n        /* \"#utility.yul\":6202:6203   */\n      0x00\n        /* \"#utility.yul\":6187:6613   */\n    tag_137:\n        /* \"#utility.yul\":6212:6218   */\n      dup6\n        /* \"#utility.yul\":6209:6210   */\n      dup2\n        /* \"#utility.yul\":6206:6219   */\n      lt\n        /* \"#utility.yul\":6187:6613   */\n      iszero\n      tag_139\n      jumpi\n        /* \"#utility.yul\":6283:6292   */\n      dup5\n        /* \"#utility.yul\":6277:6281   */\n      dup5\n        /* \"#utility.yul\":6273:6293   */\n      sub\n        /* \"#utility.yul\":6268:6271   */\n      dup10\n        /* \"#utility.yul\":6261:6294   */\n      mstore\n        /* \"#utility.yul\":6334:6340   */\n      dup2\n        /* \"#utility.yul\":6328:6341   */\n      mload\n        /* \"#utility.yul\":6362:6466   */\n      tag_140\n        /* \"#utility.yul\":6461:6465   */\n      dup6\n        /* \"#utility.yul\":6446:6459   */\n      dup3\n        /* \"#utility.yul\":6362:6466   */\n      tag_59\n      jump\t// in\n    tag_140:\n        /* \"#utility.yul\":6354:6466   */\n      swap5\n      pop\n        /* \"#utility.yul\":6489:6569   */\n      tag_141\n        /* \"#utility.yul\":6562:6568   */\n      dup4\n        /* \"#utility.yul\":6489:6569   */\n      tag_60\n      jump\t// in\n    tag_141:\n        /* \"#utility.yul\":6479:6569   */\n      swap3\n      pop\n        /* \"#utility.yul\":6598:6602   */\n      0x20\n        /* \"#utility.yul\":6593:6596   */\n      dup11\n        /* \"#utility.yul\":6589:6603   */\n      add\n        /* \"#utility.yul\":6582:6603   */\n      swap10\n      pop\n        /* \"#utility.yul\":6247:6613   */\n      pop\n        /* \"#utility.yul\":6234:6235   */\n      0x01\n        /* \"#utility.yul\":6231:6232   */\n      dup2\n        /* \"#utility.yul\":6227:6236   */\n      add\n        /* \"#utility.yul\":6222:6236   */\n      swap1\n      pop\n        /* \"#utility.yul\":6187:6613   */\n      jump(tag_137)\n    tag_139:\n        /* \"#utility.yul\":6191:6205   */\n      pop\n        /* \"#utility.yul\":6629:6633   */\n      dup3\n        /* \"#utility.yul\":6622:6633   */\n      swap8\n      pop\n        /* \"#utility.yul\":6649:6652   */\n      dup8\n        /* \"#utility.yul\":6642:6652   */\n      swap6\n      pop\n        /* \"#utility.yul\":5751:6658   */\n      pop\n      pop\n      pop\n      pop\n      pop\n        /* \"#utility.yul\":5587:6658   */\n      swap3\n      swap2\n      pop\n      pop\n      jump\t// out\n        /* \"#utility.yul\":6664:7117   */\n    tag_12:\n        /* \"#utility.yul\":6847:6851   */\n      0x00\n        /* \"#utility.yul\":6885:6887   */\n      0x20\n        /* \"#utility.yul\":6874:6883   */\n      dup3\n        /* \"#utility.yul\":6870:6888   */\n      add\n        /* \"#utility.yul\":6862:6888   */\n      swap1\n      pop\n        /* \"#utility.yul\":6934:6943   */\n      dup2\n        /* \"#utility.yul\":6928:6932   */\n      dup2\n        /* \"#utility.yul\":6924:6944   */\n      sub\n        /* \"#utility.yul\":6920:6921   */\n      0x00\n        /* \"#utility.yul\":6909:6918   */\n      dup4\n        /* \"#utility.yul\":6905:6922   */\n      add\n        /* \"#utility.yul\":6898:6945   */\n      mstore\n        /* \"#utility.yul\":6962:7110   */\n      tag_143\n        /* \"#utility.yul\":7105:7109   */\n      dup2\n        /* \"#utility.yul\":7096:7102   */\n      dup5\n        /* \"#utility.yul\":6962:7110   */\n      tag_61\n      jump\t// in\n    tag_143:\n        /* \"#utility.yul\":6954:7110   */\n      swap1\n      pop\n        /* \"#utility.yul\":6664:7117   */\n      swap3\n      swap2\n      pop\n      pop\n      jump\t// out\n        /* \"#utility.yul\":7123:7292   */\n    tag_62:\n        /* \"#utility.yul\":7207:7218   */\n      0x00\n        /* \"#utility.yul\":7241:7247   */\n      dup3\n        /* \"#utility.yul\":7236:7239   */\n      dup3\n        /* \"#utility.yul\":7229:7248   */\n      mstore\n        /* \"#utility.yul\":7281:7285   */\n      0x20\n        /* \"#utility.yul\":7276:7279   */\n      dup3\n        /* \"#utility.yul\":7272:7286   */\n      add\n        /* \"#utility.yul\":7257:7286   */\n      swap1\n      pop\n        /* \"#utility.yul\":7123:7292   */\n      swap3\n      swap2\n      pop\n      pop\n      jump\t// out\n        /* \"#utility.yul\":7298:7476   */\n    tag_63:\n        /* \"#utility.yul\":7438:7468   */\n      0x506c6561736520616d6f756e742063616e6e6f74206265207a65726f00000000\n        /* \"#utility.yul\":7434:7435   */\n      0x00\n        /* \"#utility.yul\":7426:7432   */\n      dup3\n        /* \"#utility.yul\":7422:7436   */\n      add\n        /* \"#utility.yul\":7415:7469   */\n      mstore\n        /* \"#utility.yul\":7298:7476   */\n      pop\n      jump\t// out\n        /* \"#utility.yul\":7482:7848   */\n    tag_64:\n        /* \"#utility.yul\":7624:7627   */\n      0x00\n        /* \"#utility.yul\":7645:7712   */\n      tag_147\n        /* \"#utility.yul\":7709:7711   */\n      0x1c\n        /* \"#utility.yul\":7704:7707   */\n      dup4\n        /* \"#utility.yul\":7645:7712   */\n      tag_62\n      jump\t// in\n    tag_147:\n        /* \"#utility.yul\":7638:7712   */\n      swap2\n      pop\n        /* \"#utility.yul\":7721:7814   */\n      tag_148\n        /* \"#utility.yul\":7810:7813   */\n      dup3\n        /* \"#utility.yul\":7721:7814   */\n      tag_63\n      jump\t// in\n    tag_148:\n        /* \"#utility.yul\":7839:7841   */\n      0x20\n        /* \"#utility.yul\":7834:7837   */\n      dup3\n        /* \"#utility.yul\":7830:7842   */\n      add\n        /* \"#utility.yul\":7823:7842   */\n      swap1\n      pop\n        /* \"#utility.yul\":7482:7848   */\n      swap2\n      swap1\n      pop\n      jump\t// out\n        /* \"#utility.yul\":7854:8273   */\n    tag_16:\n        /* \"#utility.yul\":8020:8024   */\n      0x00\n        /* \"#utility.yul\":8058:8060   */\n      0x20\n        /* \"#utility.yul\":8047:8056   */\n      dup3\n        /* \"#utility.yul\":8043:8061   */\n      add\n        /* \"#utility.yul\":8035:8061   */\n      swap1\n      pop\n        /* \"#utility.yul\":8107:8116   */\n      dup2\n        /* \"#utility.yul\":8101:8105   */\n      dup2\n        /* \"#utility.yul\":8097:8117   */\n      sub\n        /* \"#utility.yul\":8093:8094   */\n      0x00\n        /* \"#utility.yul\":8082:8091   */\n      dup4\n        /* \"#utility.yul\":8078:8095   */\n      add\n        /* \"#utility.yul\":8071:8118   */\n      mstore\n        /* \"#utility.yul\":8135:8266   */\n      tag_150\n        /* \"#utility.yul\":8261:8265   */\n      dup2\n        /* \"#utility.yul\":8135:8266   */\n      tag_64\n      jump\t// in\n    tag_150:\n        /* \"#utility.yul\":8127:8266   */\n      swap1\n      pop\n        /* \"#utility.yul\":7854:8273   */\n      swap2\n      swap1\n      pop\n      jump\t// out\n        /* \"#utility.yul\":8279:8459   */\n    tag_65:\n        /* \"#utility.yul\":8327:8404   */\n      0x4e487b7100000000000000000000000000000000000000000000000000000000\n        /* \"#utility.yul\":8324:8325   */\n      0x00\n        /* \"#utility.yul\":8317:8405   */\n      mstore\n        /* \"#utility.yul\":8424:8428   */\n      0x41\n        /* \"#utility.yul\":8421:8422   */\n      0x04\n        /* \"#utility.yul\":8414:8429   */\n      mstore\n        /* \"#utility.yul\":8448:8452   */\n      0x24\n        /* \"#utility.yul\":8445:8446   */\n      0x00\n        /* \"#utility.yul\":8438:8453   */\n      revert\n        /* \"#utility.yul\":8465:8645   */\n    tag_66:\n        /* \"#utility.yul\":8513:8590   */\n      0x4e487b7100000000000000000000000000000000000000000000000000000000\n        /* \"#utility.yul\":8510:8511   */\n      0x00\n        /* \"#utility.yul\":8503:8591   */\n      mstore\n        /* \"#utility.yul\":8610:8614   */\n      0x22\n        /* \"#utility.yul\":8607:8608   */\n      0x04\n        /* \"#utility.yul\":8600:8615   */\n      mstore\n        /* \"#utility.yul\":8634:8638   */\n      0x24\n        /* \"#utility.yul\":8631:8632   */\n      0x00\n        /* \"#utility.yul\":8624:8639   */\n      revert\n        /* \"#utility.yul\":8651:8971   */\n    tag_28:\n        /* \"#utility.yul\":8695:8701   */\n      0x00\n        /* \"#utility.yul\":8732:8733   */\n      0x02\n        /* \"#utility.yul\":8726:8730   */\n      dup3\n        /* \"#utility.yul\":8722:8734   */\n      div\n        /* \"#utility.yul\":8712:8734   */\n      swap1\n      pop\n        /* \"#utility.yul\":8779:8780   */\n      0x01\n        /* \"#utility.yul\":8773:8777   */\n      dup3\n        /* \"#utility.yul\":8769:8781   */\n      and\n        /* \"#utility.yul\":8800:8818   */\n      dup1\n        /* \"#utility.yul\":8790:8871   */\n      tag_154\n      jumpi\n        /* \"#utility.yul\":8856:8860   */\n      0x7f\n        /* \"#utility.yul\":8848:8854   */\n      dup3\n        /* \"#utility.yul\":8844:8861   */\n      and\n        /* \"#utility.yul\":8834:8861   */\n      swap2\n      pop\n        /* \"#utility.yul\":8790:8871   */\n    tag_154:\n        /* \"#utility.yul\":8918:8920   */\n      0x20\n        /* \"#utility.yul\":8910:8916   */\n      dup3\n        /* \"#utility.yul\":8907:8921   */\n      lt\n        /* \"#utility.yul\":8887:8905   */\n      dup2\n        /* \"#utility.yul\":8884:8922   */\n      sub\n        /* \"#utility.yul\":8881:8965   */\n      tag_155\n      jumpi\n        /* \"#utility.yul\":8937:8955   */\n      tag_156\n      tag_66\n      jump\t// in\n    tag_156:\n        /* \"#utility.yul\":8881:8965   */\n    tag_155:\n        /* \"#utility.yul\":8702:8971   */\n      pop\n        /* \"#utility.yul\":8651:8971   */\n      swap2\n      swap1\n      pop\n      jump\t// out\n        /* \"#utility.yul\":8977:9118   */\n    tag_67:\n        /* \"#utility.yul\":9026:9030   */\n      0x00\n        /* \"#utility.yul\":9049:9052   */\n      dup2\n        /* \"#utility.yul\":9041:9052   */\n      swap1\n      pop\n        /* \"#utility.yul\":9072:9075   */\n      dup2\n        /* \"#utility.yul\":9069:9070   */\n      0x00\n        /* \"#utility.yul\":9062:9076   */\n      mstore\n        /* \"#utility.yul\":9106:9110   */\n      0x20\n        /* \"#utility.yul\":9103:9104   */\n      0x00\n        /* \"#utility.yul\":9093:9111   */\n      keccak256\n        /* \"#utility.yul\":9085:9111   */\n      swap1\n      pop\n        /* \"#utility.yul\":8977:9118   */\n      swap2\n      swap1\n      pop\n      jump\t// out\n        /* \"#utility.yul\":9124:9217   */\n    tag_68:\n        /* \"#utility.yul\":9161:9167   */\n      0x00\n        /* \"#utility.yul\":9208:9210   */\n      0x20\n        /* \"#utility.yul\":9203:9205   */\n      0x1f\n        /* \"#utility.yul\":9196:9201   */\n      dup4\n        /* \"#utility.yul\":9192:9206   */\n      add\n        /* \"#utility.yul\":9188:9211   */\n      div\n        /* \"#utility.yul\":9178:9211   */\n      swap1\n      pop\n        /* \"#utility.yul\":9124:9217   */\n      swap2\n      swap1\n      pop\n      jump\t// out\n        /* \"#utility.yul\":9223:9330   */\n    tag_69:\n        /* \"#utility.yul\":9267:9275   */\n      0x00\n        /* \"#utility.yul\":9317:9322   */\n      dup3\n        /* \"#utility.yul\":9311:9315   */\n      dup3\n        /* \"#utility.yul\":9307:9323   */\n      shl\n        /* \"#utility.yul\":9286:9323   */\n      swap1\n      pop\n        /* \"#utility.yul\":9223:9330   */\n      swap3\n      swap2\n      pop\n      pop\n      jump\t// out\n        /* \"#utility.yul\":9336:9729   */\n    tag_70:\n        /* \"#utility.yul\":9405:9411   */\n      0x00\n        /* \"#utility.yul\":9455:9456   */\n      0x08\n        /* \"#utility.yul\":9443:9453   */\n      dup4\n        /* \"#utility.yul\":9439:9457   */\n      mul\n        /* \"#utility.yul\":9478:9575   */\n      tag_161\n        /* \"#utility.yul\":9508:9574   */\n      0xffffffffffffffffffffffffffffffffffffffffffffffffffffffffffffffff\n        /* \"#utility.yul\":9497:9506   */\n      dup3\n        /* \"#utility.yul\":9478:9575   */\n      tag_69\n      jump\t// in\n    tag_161:\n        /* \"#utility.yul\":9596:9635   */\n      tag_162\n        /* \"#utility.yul\":9626:9634   */\n      dup7\n        /* \"#utility.yul\":9615:9624   */\n      dup4\n        /* \"#utility.yul\":9596:9635   */\n      tag_69\n      jump\t// in\n    tag_162:\n        /* \"#utility.yul\":9584:9635   */\n      swap6\n      pop\n        /* \"#utility.yul\":9668:9672   */\n      dup1\n        /* \"#utility.yul\":9664:9673   */\n      not\n        /* \"#utility.yul\":9657:9662   */\n      dup5\n        /* \"#utility.yul\":9653:9674   */\n      and\n        /* \"#utility.yul\":9644:9674   */\n      swap4\n      pop\n        /* \"#utility.yul\":9717:9721   */\n      dup1\n        /* \"#utility.yul\":9707:9715   */\n      dup7\n        /* \"#utility.yul\":9703:9722   */\n      and\n        /* \"#utility.yul\":9696:9701   */\n      dup5\n        /* \"#utility.yul\":9693:9723   */\n      or\n        /* \"#utility.yul\":9683:9723   */\n      swap3\n      pop\n        /* \"#utility.yul\":9412:9729   */\n      pop\n      pop\n        /* \"#utility.yul\":9336:9729   */\n      swap4\n      swap3\n      pop\n      pop\n      pop\n      jump\t// out\n        /* \"#utility.yul\":9735:9795   */\n    tag_71:\n        /* \"#utility.yul\":9763:9766   */\n      0x00\n        /* \"#utility.yul\":9784:9789   */\n      dup2\n        /* \"#utility.yul\":9777:9789   */\n      swap1\n      pop\n        /* \"#utility.yul\":9735:9795   */\n      swap2\n      swap1\n      pop\n      jump\t// out\n        /* \"#utility.yul\":9801:9943   */\n    tag_72:\n        /* \"#utility.yul\":9851:9860   */\n      0x00\n        /* \"#utility.yul\":9884:9937   */\n      tag_165\n        /* \"#utility.yul\":9902:9936   */\n      tag_166\n        /* \"#utility.yul\":9911:9935   */\n      tag_167\n        /* \"#utility.yul\":9929:9934   */\n      dup5\n        /* \"#utility.yul\":9911:9935   */\n      tag_53\n      jump\t// in\n    tag_167:\n        /* \"#utility.yul\":9902:9936   */\n      tag_71\n      jump\t// in\n    tag_166:\n        /* \"#utility.yul\":9884:9937   */\n      tag_53\n      jump\t// in\n    tag_165:\n        /* \"#utility.yul\":9871:9937   */\n      swap1\n      pop\n        /* \"#utility.yul\":9801:9943   */\n      swap2\n      swap1\n      pop\n      jump\t// out\n        /* \"#utility.yul\":9949:10024   */\n    tag_73:\n        /* \"#utility.yul\":9992:9995   */\n      0x00\n        /* \"#utility.yul\":10013:10018   */\n      dup2\n        /* \"#utility.yul\":10006:10018   */\n      swap1\n      pop\n        /* \"#utility.yul\":9949:10024   */\n      swap2\n      swap1\n      pop\n      jump\t// out\n        /* \"#utility.yul\":10030:10299   */\n    tag_74:\n        /* \"#utility.yul\":10140:10179   */\n      tag_170\n        /* \"#utility.yul\":10171:10178   */\n      dup4\n        /* \"#utility.yul\":10140:10179   */\n      tag_72\n      jump\t// in\n    tag_170:\n        /* \"#utility.yul\":10201:10292   */\n      tag_171\n        /* \"#utility.yul\":10250:10291   */\n      tag_172\n        /* \"#utility.yul\":10274:10290   */\n      dup3\n        /* \"#utility.yul\":10250:10291   */\n      tag_73\n      jump\t// in\n    tag_172:\n        /* \"#utility.yul\":10242:10248   */\n      dup5\n        /* \"#utility.yul\":10235:10239   */\n      dup5\n        /* \"#utility.yul\":10229:10240   */\n      sload\n        /* \"#utility.yul\":10201:10292   */\n      tag_70\n      jump\t// in\n    tag_171:\n        /* \"#utility.yul\":10195:10199   */\n      dup3\n        /* \"#utility.yul\":10188:10293   */\n      sstore\n        /* \"#utility.yul\":10106:10299   */\n      pop\n        /* \"#utility.yul\":10030:10299   */\n      pop\n      pop\n      pop\n      jump\t// out\n        /* \"#utility.yul\":10305:10378   */\n    tag_75:\n        /* \"#utility.yul\":10350:10353   */\n      0x00\n        /* \"#utility.yul\":10305:10378   */\n      swap1\n      jump\t// out\n        /* \"#utility.yul\":10384:10573   */\n    tag_76:\n        /* \"#utility.yul\":10461:10493   */\n      tag_175\n      tag_75\n      jump\t// in\n    tag_175:\n        /* \"#utility.yul\":10502:10567   */\n      tag_176\n        /* \"#utility.yul\":10560:10566   */\n      dup2\n        /* \"#utility.yul\":10552:10558   */\n      dup5\n        /* \"#utility.yul\":10546:10550   */\n      dup5\n        /* \"#utility.yul\":10502:10567   */\n      tag_74\n      jump\t// in\n    tag_176:\n        /* \"#utility.yul\":10437:10573   */\n      pop\n        /* \"#utility.yul\":10384:10573   */\n      pop\n      pop\n      jump\t// out\n        /* \"#utility.yul\":10579:10765   */\n    tag_77:\n        /* \"#utility.yul\":10639:10759   */\n    tag_178:\n        /* \"#utility.yul\":10656:10659   */\n      dup2\n        /* \"#utility.yul\":10649:10654   */\n      dup2\n        /* \"#utility.yul\":10646:10660   */\n      lt\n        /* \"#utility.yul\":10639:10759   */\n      iszero\n      tag_180\n      jumpi\n        /* \"#utility.yul\":10710:10749   */\n      tag_181\n        /* \"#utility.yul\":10747:10748   */\n      0x00\n        /* \"#utility.yul\":10740:10745   */\n      dup3\n        /* \"#utility.yul\":10710:10749   */\n      tag_76\n      jump\t// in\n    tag_181:\n        /* \"#utility.yul\":10683:10684   */\n      0x01\n        /* \"#utility.yul\":10676:10681   */\n      dup2\n        /* \"#utility.yul\":10672:10685   */\n      add\n        /* \"#utility.yul\":10663:10685   */\n      swap1\n      pop\n        /* \"#utility.yul\":10639:10759   */\n      jump(tag_178)\n    tag_180:\n        /* \"#utility.yul\":10579:10765   */\n      pop\n      pop\n      jump\t// out\n        /* \"#utility.yul\":10771:11314   */\n    tag_78:\n        /* \"#utility.yul\":10872:10874   */\n      0x1f\n        /* \"#utility.yul\":10867:10870   */\n      dup3\n        /* \"#utility.yul\":10864:10875   */\n      gt\n        /* \"#utility.yul\":10861:11307   */\n      iszero\n      tag_183\n      jumpi\n        /* \"#utility.yul\":10906:10944   */\n      tag_184\n        /* \"#utility.yul\":10938:10943   */\n      dup2\n        /* \"#utility.yul\":10906:10944   */\n      tag_67\n      jump\t// in\n    tag_184:\n        /* \"#utility.yul\":10990:11019   */\n      tag_185\n        /* \"#utility.yul\":11008:11018   */\n      dup5\n        /* \"#utility.yul\":10990:11019   */\n      tag_68\n      jump\t// in\n    tag_185:\n        /* \"#utility.yul\":10980:10988   */\n      dup2\n        /* \"#utility.yul\":10976:11020   */\n      add\n        /* \"#utility.yul\":11173:11175   */\n      0x20\n        /* \"#utility.yul\":11161:11171   */\n      dup6\n        /* \"#utility.yul\":11158:11176   */\n      lt\n        /* \"#utility.yul\":11155:11204   */\n      iszero\n      tag_186\n      jumpi\n        /* \"#utility.yul\":11194:11202   */\n      dup2\n        /* \"#utility.yul\":11179:11202   */\n      swap1\n      pop\n        /* \"#utility.yul\":11155:11204   */\n    tag_186:\n        /* \"#utility.yul\":11217:11297   */\n      tag_187\n        /* \"#utility.yul\":11273:11295   */\n      tag_188\n        /* \"#utility.yul\":11291:11294   */\n      dup6\n        /* \"#utility.yul\":11273:11295   */\n      tag_68\n      jump\t// in\n    tag_188:\n        /* \"#utility.yul\":11263:11271   */\n      dup4\n        /* \"#utility.yul\":11259:11296   */\n      add\n        /* \"#utility.yul\":11246:11257   */\n      dup3\n        /* \"#utility.yul\":11217:11297   */\n      tag_77\n      jump\t// in\n    tag_187:\n        /* \"#utility.yul\":10876:11307   */\n      pop\n      pop\n        /* \"#utility.yul\":10861:11307   */\n    tag_183:\n        /* \"#utility.yul\":10771:11314   */\n      pop\n      pop\n      pop\n      jump\t// out\n        /* \"#utility.yul\":11320:11437   */\n    tag_79:\n        /* \"#utility.yul\":11374:11382   */\n      0x00\n        /* \"#utility.yul\":11424:11429   */\n      dup3\n        /* \"#utility.yul\":11418:11422   */\n      dup3\n        /* \"#utility.yul\":11414:11430   */\n      shr\n        /* \"#utility.yul\":11393:11430   */\n      swap1\n      pop\n        /* \"#utility.yul\":11320:11437   */\n      swap3\n      swap2\n      pop\n      pop\n      jump\t// out\n        /* \"#utility.yul\":11443:11612   */\n    tag_80:\n        /* \"#utility.yul\":11487:11493   */\n      0x00\n        /* \"#utility.yul\":11520:11571   */\n      tag_191\n        /* \"#utility.yul\":11568:11569   */\n      0x00\n        /* \"#utility.yul\":11564:11570   */\n      not\n        /* \"#utility.yul\":11556:11561   */\n      dup5\n        /* \"#utility.yul\":11553:11554   */\n      0x08\n        /* \"#utility.yul\":11549:11562   */\n      mul\n        /* \"#utility.yul\":11520:11571   */\n      tag_79\n      jump\t// in\n    tag_191:\n        /* \"#utility.yul\":11516:11572   */\n      not\n        /* \"#utility.yul\":11601:11605   */\n      dup1\n        /* \"#utility.yul\":11595:11599   */\n      dup4\n        /* \"#utility.yul\":11591:11606   */\n      and\n        /* \"#utility.yul\":11581:11606   */\n      swap2\n      pop\n        /* \"#utility.yul\":11494:11612   */\n      pop\n        /* \"#utility.yul\":11443:11612   */\n      swap3\n      swap2\n      pop\n      pop\n      jump\t// out\n        /* \"#utility.yul\":11617:11912   */\n    tag_81:\n        /* \"#utility.yul\":11693:11697   */\n      0x00\n        /* \"#utility.yul\":11839:11868   */\n      tag_193\n        /* \"#utility.yul\":11864:11867   */\n      dup4\n        /* \"#utility.yul\":11858:11862   */\n      dup4\n        /* \"#utility.yul\":11839:11868   */\n      tag_80\n      jump\t// in\n    tag_193:\n        /* \"#utility.yul\":11831:11868   */\n      swap2\n      pop\n        /* \"#utility.yul\":11901:11904   */\n      dup3\n        /* \"#utility.yul\":11898:11899   */\n      0x02\n        /* \"#utility.yul\":11894:11905   */\n      mul\n        /* \"#utility.yul\":11888:11892   */\n      dup3\n        /* \"#utility.yul\":11885:11906   */\n      or\n        /* \"#utility.yul\":11877:11906   */\n      swap1\n      pop\n        /* \"#utility.yul\":11617:11912   */\n      swap3\n      swap2\n      pop\n      pop\n      jump\t// out\n        /* \"#utility.yul\":11917:13312   */\n    tag_21:\n        /* \"#utility.yul\":12034:12071   */\n      tag_195\n        /* \"#utility.yul\":12067:12070   */\n      dup3\n        /* \"#utility.yul\":12034:12071   */\n      tag_48\n      jump\t// in\n    tag_195:\n        /* \"#utility.yul\":12136:12154   */\n      0xffffffffffffffff\n        /* \"#utility.yul\":12128:12134   */\n      dup2\n        /* \"#utility.yul\":12125:12155   */\n      gt\n        /* \"#utility.yul\":12122:12178   */\n      iszero\n      tag_196\n      jumpi\n        /* \"#utility.yul\":12158:12176   */\n      tag_197\n      tag_65\n      jump\t// in\n    tag_197:\n        /* \"#utility.yul\":12122:12178   */\n    tag_196:\n        /* \"#utility.yul\":12202:12240   */\n      tag_198\n        /* \"#utility.yul\":12234:12238   */\n      dup3\n        /* \"#utility.yul\":12228:12239   */\n      sload\n        /* \"#utility.yul\":12202:12240   */\n      tag_28\n      jump\t// in\n    tag_198:\n        /* \"#utility.yul\":12287:12354   */\n      tag_199\n        /* \"#utility.yul\":12347:12353   */\n      dup3\n        /* \"#utility.yul\":12339:12345   */\n      dup3\n        /* \"#utility.yul\":12333:12337   */\n      dup6\n        /* \"#utility.yul\":12287:12354   */\n      tag_78\n      jump\t// in\n    tag_199:\n        /* \"#utility.yul\":12381:12382   */\n      0x00\n        /* \"#utility.yul\":12405:12409   */\n      0x20\n        /* \"#utility.yul\":12392:12409   */\n      swap1\n      pop\n        /* \"#utility.yul\":12437:12439   */\n      0x1f\n        /* \"#utility.yul\":12429:12435   */\n      dup4\n        /* \"#utility.yul\":12426:12440   */\n      gt\n        /* \"#utility.yul\":12454:12455   */\n      0x01\n        /* \"#utility.yul\":12449:13067   */\n      dup2\n      eq\n      tag_201\n      jumpi\n        /* \"#utility.yul\":13111:13112   */\n      0x00\n        /* \"#utility.yul\":13128:13134   */\n      dup5\n        /* \"#utility.yul\":13125:13202   */\n      iszero\n      tag_202\n      jumpi\n        /* \"#utility.yul\":13177:13186   */\n      dup3\n        /* \"#utility.yul\":13172:13175   */\n      dup8\n        /* \"#utility.yul\":13168:13187   */\n      add\n        /* \"#utility.yul\":13162:13188   */\n      mload\n        /* \"#utility.yul\":13153:13188   */\n      swap1\n      pop\n        /* \"#utility.yul\":13125:13202   */\n    tag_202:\n        /* \"#utility.yul\":13228:13295   */\n      tag_203\n        /* \"#utility.yul\":13288:13294   */\n      dup6\n        /* \"#utility.yul\":13281:13286   */\n      dup3\n        /* \"#utility.yul\":13228:13295   */\n      tag_81\n      jump\t// in\n    tag_203:\n        /* \"#utility.yul\":13222:13226   */\n      dup7\n        /* \"#utility.yul\":13215:13296   */\n      sstore\n        /* \"#utility.yul\":13084:13306   */\n      pop\n        /* \"#utility.yul\":12419:13306   */\n      jump(tag_200)\n        /* \"#utility.yul\":12449:13067   */\n    tag_201:\n        /* \"#utility.yul\":12501:12505   */\n      0x1f\n        /* \"#utility.yul\":12497:12506   */\n      not\n        /* \"#utility.yul\":12489:12495   */\n      dup5\n        /* \"#utility.yul\":12485:12507   */\n      and\n        /* \"#utility.yul\":12535:12572   */\n      tag_204\n        /* \"#utility.yul\":12567:12571   */\n      dup7\n        /* \"#utility.yul\":12535:12572   */\n      tag_67\n      jump\t// in\n    tag_204:\n        /* \"#utility.yul\":12594:12595   */\n      0x00\n        /* \"#utility.yul\":12608:12816   */\n    tag_205:\n        /* \"#utility.yul\":12622:12629   */\n      dup3\n        /* \"#utility.yul\":12619:12620   */\n      dup2\n        /* \"#utility.yul\":12616:12630   */\n      lt\n        /* \"#utility.yul\":12608:12816   */\n      iszero\n      tag_207\n      jumpi\n        /* \"#utility.yul\":12701:12710   */\n      dup5\n        /* \"#utility.yul\":12696:12699   */\n      dup10\n        /* \"#utility.yul\":12692:12711   */\n      add\n        /* \"#utility.yul\":12686:12712   */\n      mload\n        /* \"#utility.yul\":12678:12684   */\n      dup3\n        /* \"#utility.yul\":12671:12713   */\n      sstore\n        /* \"#utility.yul\":12752:12753   */\n      0x01\n        /* \"#utility.yul\":12744:12750   */\n      dup3\n        /* \"#utility.yul\":12740:12754   */\n      add\n        /* \"#utility.yul\":12730:12754   */\n      swap2\n      pop\n        /* \"#utility.yul\":12799:12801   */\n      0x20\n        /* \"#utility.yul\":12788:12797   */\n      dup6\n        /* \"#utility.yul\":12784:12802   */\n      add\n        /* \"#utility.yul\":12771:12802   */\n      swap5\n      pop\n        /* \"#utility.yul\":12645:12649   */\n      0x20\n        /* \"#utility.yul\":12642:12643   */\n      dup2\n        /* \"#utility.yul\":12638:12650   */\n      add\n        /* \"#utility.yul\":12633:12650   */\n      swap1\n      pop\n        /* \"#utility.yul\":12608:12816   */\n      jump(tag_205)\n    tag_207:\n        /* \"#utility.yul\":12844:12850   */\n      dup7\n        /* \"#utility.yul\":12835:12842   */\n      dup4\n        /* \"#utility.yul\":12832:12851   */\n      lt\n        /* \"#utility.yul\":12829:13008   */\n      iszero\n      tag_208\n      jumpi\n        /* \"#utility.yul\":12902:12911   */\n      dup5\n        /* \"#utility.yul\":12897:12900   */\n      dup10\n        /* \"#utility.yul\":12893:12912   */\n      add\n        /* \"#utility.yul\":12887:12913   */\n      mload\n        /* \"#utility.yul\":12945:12993   */\n      tag_209\n        /* \"#utility.yul\":12987:12991   */\n      0x1f\n        /* \"#utility.yul\":12979:12985   */\n      dup10\n        /* \"#utility.yul\":12975:12992   */\n      and\n        /* \"#utility.yul\":12964:12973   */\n      dup3\n        /* \"#utility.yul\":12945:12993   */\n      tag_80\n      jump\t// in\n    tag_209:\n        /* \"#utility.yul\":12937:12943   */\n      dup4\n        /* \"#utility.yul\":12930:12994   */\n      sstore\n        /* \"#utility.yul\":12852:13008   */\n      pop\n        /* \"#utility.yul\":12829:13008   */\n    tag_208:\n        /* \"#utility.yul\":13054:13055   */\n      0x01\n        /* \"#utility.yul\":13050:13051   */\n      0x02\n        /* \"#utility.yul\":13042:13048   */\n      dup9\n        /* \"#utility.yul\":13038:13052   */\n      mul\n        /* \"#utility.yul\":13034:13056   */\n      add\n        /* \"#utility.yul\":13028:13032   */\n      dup9\n        /* \"#utility.yul\":13021:13057   */\n      sstore\n        /* \"#utility.yul\":12456:13067   */\n      pop\n      pop\n      pop\n        /* \"#utility.yul\":12419:13306   */\n    tag_200:\n      pop\n        /* \"#utility.yul\":12009:13312   */\n      pop\n      pop\n      pop\n        /* \"#utility.yul\":11917:13312   */\n      pop\n      pop\n      jump\t// out\n\n    auxdata: 0xa2646970667358221220c3a89eecb9617833902ec9091811157df71a1732b2abea012ba773a4cb60f3e564736f6c63430008190033\n}\n",
        "bytecode": {
          "linkReferences": {},
          "object": "6080604052348015600e575f80fd5b503360015f6101000a81548173ffffffffffffffffffffffffffffffffffffffff021916908373ffffffffffffffffffffffffffffffffffffffff160217905550610aec8061005c5f395ff3fe608060405260043610610028575f3560e01c80636a13d8591461002c578063865c517214610048575b5f80fd5b610046600480360381019061004191906104c1565b610072565b005b348015610053575f80fd5b5061005c61027f565b6040516100699190610728565b60405180910390f35b5f34116100b4576040517f08c379a00000000000000000000000000000000000000000000000000000000081526004016100ab906107a2565b60405180910390fd5b60015f9054906101000a900473ffffffffffffffffffffffffffffffffffffffff1673ffffffffffffffffffffffffffffffffffffffff166108fc3490811502906040515f60405180830381858888f19350505050158015610118573d5f803e3d5ffd5b505f604051806080016040528086868080601f0160208091040260200160405190810160405280939291908181526020018383808284375f81840152601f19601f82011690508083019250505050505050815260200184848080601f0160208091040260200160405190810160405280939291908181526020018383808284375f81840152601f19601f8201169050808301925050505050505081526020014281526020013373ffffffffffffffffffffffffffffffffffffffff16815250908060018154018082558091505060019003905f5260205f2090600402015f909190919091505f820151815f01908161021091906109e7565b50602082015181600101908161022691906109e7565b50604082015181600201556060820151816003015f6101000a81548173ffffffffffffffffffffffffffffffffffffffff021916908373ffffffffffffffffffffffffffffffffffffffff160217905550505050505050565b60605f805480602002602001604051908101604052809291908181526020015f905b8282101561044f578382905f5260205f2090600402016040518060800160405290815f820180546102d19061081a565b80601f01602080910402602001604051908101604052809291908181526020018280546102fd9061081a565b80156103485780601f1061031f57610100808354040283529160200191610348565b820191905f5260205f20905b81548152906001019060200180831161032b57829003601f168201915b505050505081526020016001820180546103619061081a565b80601f016020809104026020016040519081016040528092919081815260200182805461038d9061081a565b80156103d85780601f106103af576101008083540402835291602001916103d8565b820191905f5260205f20905b8154815290600101906020018083116103bb57829003601f168201915b5050505050815260200160028201548152602001600382015f9054906101000a900473ffffffffffffffffffffffffffffffffffffffff1673ffffffffffffffffffffffffffffffffffffffff1673ffffffffffffffffffffffffffffffffffffffff1681525050815260200190600101906102a1565b50505050905090565b5f80fd5b5f80fd5b5f80fd5b5f80fd5b5f80fd5b5f8083601f84011261048157610480610460565b5b8235905067ffffffffffffffff81111561049e5761049d610464565b5b6020830191508360018202830111156104ba576104b9610468565b5b9250929050565b5f805f80604085870312156104d9576104d8610458565b5b5f85013567ffffffffffffffff8111156104f6576104f561045c565b5b6105028782880161046c565b9450945050602085013567ffffffffffffffff8111156105255761052461045c565b5b6105318782880161046c565b925092505092959194509250565b5f81519050919050565b5f82825260208201905092915050565b5f819050602082019050919050565b5f81519050919050565b5f82825260208201905092915050565b8281835e5f83830152505050565b5f601f19601f8301169050919050565b5f6105aa82610568565b6105b48185610572565b93506105c4818560208601610582565b6105cd81610590565b840191505092915050565b5f819050919050565b6105ea816105d8565b82525050565b5f73ffffffffffffffffffffffffffffffffffffffff82169050919050565b5f610619826105f0565b9050919050565b6106298161060f565b82525050565b5f608083015f8301518482035f86015261064982826105a0565b9150506020830151848203602086015261066382826105a0565b915050604083015161067860408601826105e1565b50606083015161068b6060860182610620565b508091505092915050565b5f6106a1838361062f565b905092915050565b5f602082019050919050565b5f6106bf8261053f565b6106c98185610549565b9350836020820285016106db85610559565b805f5b8581101561071657848403895281516106f78582610696565b9450610702836106a9565b925060208a019950506001810190506106de565b50829750879550505050505092915050565b5f6020820190508181035f83015261074081846106b5565b905092915050565b5f82825260208201905092915050565b7f506c6561736520616d6f756e742063616e6e6f74206265207a65726f000000005f82015250565b5f61078c601c83610748565b915061079782610758565b602082019050919050565b5f6020820190508181035f8301526107b981610780565b9050919050565b7f4e487b71000000000000000000000000000000000000000000000000000000005f52604160045260245ffd5b7f4e487b71000000000000000000000000000000000000000000000000000000005f52602260045260245ffd5b5f600282049050600182168061083157607f821691505b602082108103610844576108436107ed565b5b50919050565b5f819050815f5260205f209050919050565b5f6020601f8301049050919050565b5f82821b905092915050565b5f600883026108a67fffffffffffffffffffffffffffffffffffffffffffffffffffffffffffffffff8261086b565b6108b0868361086b565b95508019841693508086168417925050509392505050565b5f819050919050565b5f6108eb6108e66108e1846105d8565b6108c8565b6105d8565b9050919050565b5f819050919050565b610904836108d1565b610918610910826108f2565b848454610877565b825550505050565b5f90565b61092c610920565b6109378184846108fb565b505050565b5b8181101561095a5761094f5f82610924565b60018101905061093d565b5050565b601f82111561099f576109708161084a565b6109798461085c565b81016020851015610988578190505b61099c6109948561085c565b83018261093c565b50505b505050565b5f82821c905092915050565b5f6109bf5f19846008026109a4565b1980831691505092915050565b5f6109d783836109b0565b9150826002028217905092915050565b6109f082610568565b67ffffffffffffffff811115610a0957610a086107c0565b5b610a13825461081a565b610a1e82828561095e565b5f60209050601f831160018114610a4f575f8415610a3d578287015190505b610a4785826109cc565b865550610aae565b601f198416610a5d8661084a565b5f5b82811015610a8457848901518255600182019150602085019450602081019050610a5f565b86831015610aa15784890151610a9d601f8916826109b0565b8355505b6001600288020188555050505b50505050505056fea2646970667358221220c3a89eecb9617833902ec9091811157df71a1732b2abea012ba773a4cb60f3e564736f6c63430008190033",
          "opcodes": "PUSH1 0x80 PUSH1 0x40 MSTORE CALLVALUE DUP1 ISZERO PUSH1 0xE JUMPI PUSH0 DUP1 REVERT JUMPDEST POP CALLER PUSH1 0x1 PUSH0 PUSH2 0x100 EXP DUP2 SLOAD DUP2 PUSH20 0xFFFFFFFFFFFFFFFFFFFFFFFFFFFFFFFFFFFFFFFF MUL NOT AND SWAP1 DUP4 PUSH20 0xFFFFFFFFFFFFFFFFFFFFFFFFFFFFFFFFFFFFFFFF AND MUL OR SWAP1 SSTORE POP PUSH2 0xAEC DUP1 PUSH2 0x5C PUSH0 CODECOPY PUSH0 RETURN INVALID PUSH1 0x80 PUSH1 0x40 MSTORE PUSH1 0x4 CALLDATASIZE LT PUSH2 0x28 JUMPI PUSH0 CALLDATALOAD PUSH1 0xE0 SHR DUP1 PUSH4 0x6A13D859 EQ PUSH2 0x2C JUMPI DUP1 PUSH4 0x865C5172 EQ PUSH2 0x48 JUMPI JUMPDEST PUSH0 DUP1 REVERT JUMPDEST PUSH2 0x46 PUSH1 0x4 DUP1 CALLDATASIZE SUB DUP2 ADD SWAP1 PUSH2 0x41 SWAP2 SWAP1 PUSH2 0x4C1 JUMP JUMPDEST PUSH2 0x72 JUMP JUMPDEST STOP JUMPDEST CALLVALUE DUP1 ISZERO PUSH2 0x53 JUMPI PUSH0 DUP1 REVERT JUMPDEST POP PUSH2 0x5C PUSH2 0x27F JUMP JUMPDEST PUSH1 0x40 MLOAD PUSH2 0x69 SWAP2 SWAP1 PUSH2 0x728 JUMP JUMPDEST PUSH1 0x40 MLOAD DUP1 SWAP2 SUB SWAP1 RETURN JUMPDEST PUSH0 CALLVALUE GT PUSH2 0xB4 JUMPI PUSH1 0x40 MLOAD PUSH32 0x8C379A000000000000000000000000000000000000000000000000000000000 DUP2 MSTORE PUSH1 0x4 ADD PUSH2 0xAB SWAP1 PUSH2 0x7A2 JUMP JUMPDEST PUSH1 0x40 MLOAD DUP1 SWAP2 SUB SWAP1 REVERT JUMPDEST PUSH1 0x1 PUSH0 SWAP1 SLOAD SWAP1 PUSH2 0x100 EXP SWAP1 DIV PUSH20 0xFFFFFFFFFFFFFFFFFFFFFFFFFFFFFFFFFFFFFFFF AND PUSH20 0xFFFFFFFFFFFFFFFFFFFFFFFFFFFFFFFFFFFFFFFF AND PUSH2 0x8FC CALLVALUE SWAP1 DUP2 ISZERO MUL SWAP1 PUSH1 0x40 MLOAD PUSH0 PUSH1 0x40 MLOAD DUP1 DUP4 SUB DUP2 DUP6 DUP9 DUP9 CALL SWAP4 POP POP POP POP ISZERO DUP1 ISZERO PUSH2 0x118 JUMPI RETURNDATASIZE PUSH0 DUP1 RETURNDATACOPY RETURNDATASIZE PUSH0 REVERT JUMPDEST POP PUSH0 PUSH1 0x40 MLOAD DUP1 PUSH1 0x80 ADD PUSH1 0x40 MSTORE DUP1 DUP7 DUP7 DUP1 DUP1 PUSH1 0x1F ADD PUSH1 0x20 DUP1 SWAP2 DIV MUL PUSH1 0x20 ADD PUSH1 0x40 MLOAD SWAP1 DUP2 ADD PUSH1 0x40 MSTORE DUP1 SWAP4 SWAP3 SWAP2 SWAP1 DUP2 DUP2 MSTORE PUSH1 0x20 ADD DUP4 DUP4 DUP1 DUP3 DUP5 CALLDATACOPY PUSH0 DUP2 DUP5 ADD MSTORE PUSH1 0x1F NOT PUSH1 0x1F DUP3 ADD AND SWAP1 POP DUP1 DUP4 ADD SWAP3 POP POP POP POP POP POP POP DUP2 MSTORE PUSH1 0x20 ADD DUP5 DUP5 DUP1 DUP1 PUSH1 0x1F ADD PUSH1 0x20 DUP1 SWAP2 DIV MUL PUSH1 0x20 ADD PUSH1 0x40 MLOAD SWAP1 DUP2 ADD PUSH1 0x40 MSTORE DUP1 SWAP4 SWAP3 SWAP2 SWAP1 DUP2 DUP2 MSTORE PUSH1 0x20 ADD DUP4 DUP4 DUP1 DUP3 DUP5 CALLDATACOPY PUSH0 DUP2 DUP5 ADD MSTORE PUSH1 0x1F NOT PUSH1 0x1F DUP3 ADD AND SWAP1 POP DUP1 DUP4 ADD SWAP3 POP POP POP POP POP POP POP DUP2 MSTORE PUSH1 0x20 ADD TIMESTAMP DUP2 MSTORE PUSH1 0x20 ADD CALLER PUSH20 0xFFFFFFFFFFFFFFFFFFFFFFFFFFFFFFFFFFFFFFFF AND DUP2 MSTORE POP SWAP1 DUP1 PUSH1 0x1 DUP2 SLOAD ADD DUP1 DUP3 SSTORE DUP1 SWAP2 POP POP PUSH1 0x1 SWAP1 SUB SWAP1 PUSH0 MSTORE PUSH1 0x20 PUSH0 KECCAK256 SWAP1 PUSH1 0x4 MUL ADD PUSH0 SWAP1 SWAP2 SWAP1 SWAP2 SWAP1 SWAP2 POP PUSH0 DUP3 ADD MLOAD DUP2 PUSH0 ADD SWAP1 DUP2 PUSH2 0x210 SWAP2 SWAP1 PUSH2 0x9E7 JUMP JUMPDEST POP PUSH1 0x20 DUP3 ADD MLOAD DUP2 PUSH1 0x1 ADD SWAP1 DUP2 PUSH2 0x226 SWAP2 SWAP1 PUSH2 0x9E7 JUMP JUMPDEST POP PUSH1 0x40 DUP3 ADD MLOAD DUP2 PUSH1 0x2 ADD SSTORE PUSH1 0x60 DUP3 ADD MLOAD DUP2 PUSH1 0x3 ADD PUSH0 PUSH2 0x100 EXP DUP2 SLOAD DUP2 PUSH20 0xFFFFFFFFFFFFFFFFFFFFFFFFFFFFFFFFFFFFFFFF MUL NOT AND SWAP1 DUP4 PUSH20 0xFFFFFFFFFFFFFFFFFFFFFFFFFFFFFFFFFFFFFFFF AND MUL OR SWAP1 SSTORE POP POP POP POP POP POP POP JUMP JUMPDEST PUSH1 0x60 PUSH0 DUP1 SLOAD DUP1 PUSH1 0x20 MUL PUSH1 0x20 ADD PUSH1 0x40 MLOAD SWAP1 DUP2 ADD PUSH1 0x40 MSTORE DUP1 SWAP3 SWAP2 SWAP1 DUP2 DUP2 MSTORE PUSH1 0x20 ADD PUSH0 SWAP1 JUMPDEST DUP3 DUP3 LT ISZERO PUSH2 0x44F JUMPI DUP4 DUP3 SWAP1 PUSH0 MSTORE PUSH1 0x20 PUSH0 KECCAK256 SWAP1 PUSH1 0x4 MUL ADD PUSH1 0x40 MLOAD DUP1 PUSH1 0x80 ADD PUSH1 0x40 MSTORE SWAP1 DUP2 PUSH0 DUP3 ADD DUP1 SLOAD PUSH2 0x2D1 SWAP1 PUSH2 0x81A JUMP JUMPDEST DUP1 PUSH1 0x1F ADD PUSH1 0x20 DUP1 SWAP2 DIV MUL PUSH1 0x20 ADD PUSH1 0x40 MLOAD SWAP1 DUP2 ADD PUSH1 0x40 MSTORE DUP1 SWAP3 SWAP2 SWAP1 DUP2 DUP2 MSTORE PUSH1 0x20 ADD DUP3 DUP1 SLOAD PUSH2 0x2FD SWAP1 PUSH2 0x81A JUMP JUMPDEST DUP1 ISZERO PUSH2 0x348 JUMPI DUP1 PUSH1 0x1F LT PUSH2 0x31F JUMPI PUSH2 0x100 DUP1 DUP4 SLOAD DIV MUL DUP4 MSTORE SWAP2 PUSH1 0x20 ADD SWAP2 PUSH2 0x348 JUMP JUMPDEST DUP3 ADD SWAP2 SWAP1 PUSH0 MSTORE PUSH1 0x20 PUSH0 KECCAK256 SWAP1 JUMPDEST DUP2 SLOAD DUP2 MSTORE SWAP1 PUSH1 0x1 ADD SWAP1 PUSH1 0x20 ADD DUP1 DUP4 GT PUSH2 0x32B JUMPI DUP3 SWAP1 SUB PUSH1 0x1F AND DUP3 ADD SWAP2 JUMPDEST POP POP POP POP POP DUP2 MSTORE PUSH1 0x20 ADD PUSH1 0x1 DUP3 ADD DUP1 SLOAD PUSH2 0x361 SWAP1 PUSH2 0x81A JUMP JUMPDEST DUP1 PUSH1 0x1F ADD PUSH1 0x20 DUP1 SWAP2 DIV MUL PUSH1 0x20 ADD PUSH1 0x40 MLOAD SWAP1 DUP2 ADD PUSH1 0x40 MSTORE DUP1 SWAP3 SWAP2 SWAP1 DUP2 DUP2 MSTORE PUSH1 0x20 ADD DUP3 DUP1 SLOAD PUSH2 0x38D SWAP1 PUSH2 0x81A JUMP JUMPDEST DUP1 ISZERO PUSH2 0x3D8 JUMPI DUP1 PUSH1 0x1F LT PUSH2 0x3AF JUMPI PUSH2 0x100 DUP1 DUP4 SLOAD DIV MUL DUP4 MSTORE SWAP2 PUSH1 0x20 ADD SWAP2 PUSH2 0x3D8 JUMP JUMPDEST DUP3 ADD SWAP2 SWAP1 PUSH0 MSTORE PUSH1 0x20 PUSH0 KECCAK256 SWAP1 JUMPDEST DUP2 SLOAD DUP2 MSTORE SWAP1 PUSH1 0x1 ADD SWAP1 PUSH1 0x20 ADD DUP1 DUP4 GT PUSH2 0x3BB JUMPI DUP3 SWAP1 SUB PUSH1 0x1F AND DUP3 ADD SWAP2 JUMPDEST POP POP POP POP POP DUP2 MSTORE PUSH1 0x20 ADD PUSH1 0x2 DUP3 ADD SLOAD DUP2 MSTORE PUSH1 0x20 ADD PUSH1 0x3 DUP3 ADD PUSH0 SWAP1 SLOAD SWAP1 PUSH2 0x100 EXP SWAP1 DIV PUSH20 0xFFFFFFFFFFFFFFFFFFFFFFFFFFFFFFFFFFFFFFFF AND PUSH20 0xFFFFFFFFFFFFFFFFFFFFFFFFFFFFFFFFFFFFFFFF AND PUSH20 0xFFFFFFFFFFFFFFFFFFFFFFFFFFFFFFFFFFFFFFFF AND DUP2 MSTORE POP POP DUP2 MSTORE PUSH1 0x20 ADD SWAP1 PUSH1 0x1 ADD SWAP1 PUSH2 0x2A1 JUMP JUMPDEST POP POP POP POP SWAP1 POP SWAP1 JUMP JUMPDEST PUSH0 DUP1 REVERT JUMPDEST PUSH0 DUP1 REVERT JUMPDEST PUSH0 DUP1 REVERT JUMPDEST PUSH0 DUP1 REVERT JUMPDEST PUSH0 DUP1 REVERT JUMPDEST PUSH0 DUP1 DUP4 PUSH1 0x1F DUP5 ADD SLT PUSH2 0x481 JUMPI PUSH2 0x480 PUSH2 0x460 JUMP JUMPDEST JUMPDEST DUP3 CALLDATALOAD SWAP1 POP PUSH8 0xFFFFFFFFFFFFFFFF DUP2 GT ISZERO PUSH2 0x49E JUMPI PUSH2 0x49D PUSH2 0x464 JUMP JUMPDEST JUMPDEST PUSH1 0x20 DUP4 ADD SWAP2 POP DUP4 PUSH1 0x1 DUP3 MUL DUP4 ADD GT ISZERO PUSH2 0x4BA JUMPI PUSH2 0x4B9 PUSH2 0x468 JUMP JUMPDEST JUMPDEST SWAP3 POP SWAP3 SWAP1 POP JUMP JUMPDEST PUSH0 DUP1 PUSH0 DUP1 PUSH1 0x40 DUP6 DUP8 SUB SLT ISZERO PUSH2 0x4D9 JUMPI PUSH2 0x4D8 PUSH2 0x458 JUMP JUMPDEST JUMPDEST PUSH0 DUP6 ADD CALLDATALOAD PUSH8 0xFFFFFFFFFFFFFFFF DUP2 GT ISZERO PUSH2 0x4F6 JUMPI PUSH2 0x4F5 PUSH2 0x45C JUMP JUMPDEST JUMPDEST PUSH2 0x502 DUP8 DUP3 DUP9 ADD PUSH2 0x46C JUMP JUMPDEST SWAP5 POP SWAP5 POP POP PUSH1 0x20 DUP6 ADD CALLDATALOAD PUSH8 0xFFFFFFFFFFFFFFFF DUP2 GT ISZERO PUSH2 0x525 JUMPI PUSH2 0x524 PUSH2 0x45C JUMP JUMPDEST JUMPDEST PUSH2 0x531 DUP8 DUP3 DUP9 ADD PUSH2 0x46C JUMP JUMPDEST SWAP3 POP SWAP3 POP POP SWAP3 SWAP6 SWAP2 SWAP5 POP SWAP3 POP JUMP JUMPDEST PUSH0 DUP2 MLOAD SWAP1 POP SWAP2 SWAP1 POP JUMP JUMPDEST PUSH0 DUP3 DUP3 MSTORE PUSH1 0x20 DUP3 ADD SWAP1 POP SWAP3 SWAP2 POP POP JUMP JUMPDEST PUSH0 DUP2 SWAP1 POP PUSH1 0x20 DUP3 ADD SWAP1 POP SWAP2 SWAP1 POP JUMP JUMPDEST PUSH0 DUP2 MLOAD SWAP1 POP SWAP2 SWAP1 POP JUMP JUMPDEST PUSH0 DUP3 DUP3 MSTORE PUSH1 0x20 DUP3 ADD SWAP1 POP SWAP3 SWAP2 POP POP JUMP JUMPDEST DUP3 DUP2 DUP4 MCOPY PUSH0 DUP4 DUP4 ADD MSTORE POP POP POP JUMP JUMPDEST PUSH0 PUSH1 0x1F NOT PUSH1 0x1F DUP4 ADD AND SWAP1 POP SWAP2 SWAP1 POP JUMP JUMPDEST PUSH0 PUSH2 0x5AA DUP3 PUSH2 0x568 JUMP JUMPDEST PUSH2 0x5B4 DUP2 DUP6 PUSH2 0x572 JUMP JUMPDEST SWAP4 POP PUSH2 0x5C4 DUP2 DUP6 PUSH1 0x20 DUP7 ADD PUSH2 0x582 JUMP JUMPDEST PUSH2 0x5CD DUP2 PUSH2 0x590 JUMP JUMPDEST DUP5 ADD SWAP2 POP POP SWAP3 SWAP2 POP POP JUMP JUMPDEST PUSH0 DUP2 SWAP1 POP SWAP2 SWAP1 POP JUMP JUMPDEST PUSH2 0x5EA DUP2 PUSH2 0x5D8 JUMP JUMPDEST DUP3 MSTORE POP POP JUMP JUMPDEST PUSH0 PUSH20 0xFFFFFFFFFFFFFFFFFFFFFFFFFFFFFFFFFFFFFFFF DUP3 AND SWAP1 POP SWAP2 SWAP1 POP JUMP JUMPDEST PUSH0 PUSH2 0x619 DUP3 PUSH2 0x5F0 JUMP JUMPDEST SWAP1 POP SWAP2 SWAP1 POP JUMP JUMPDEST PUSH2 0x629 DUP2 PUSH2 0x60F JUMP JUMPDEST DUP3 MSTORE POP POP JUMP JUMPDEST PUSH0 PUSH1 0x80 DUP4 ADD PUSH0 DUP4 ADD MLOAD DUP5 DUP3 SUB PUSH0 DUP7 ADD MSTORE PUSH2 0x649 DUP3 DUP3 PUSH2 0x5A0 JUMP JUMPDEST SWAP2 POP POP PUSH1 0x20 DUP4 ADD MLOAD DUP5 DUP3 SUB PUSH1 0x20 DUP7 ADD MSTORE PUSH2 0x663 DUP3 DUP3 PUSH2 0x5A0 JUMP JUMPDEST SWAP2 POP POP PUSH1 0x40 DUP4 ADD MLOAD PUSH2 0x678 PUSH1 0x40 DUP7 ADD DUP3 PUSH2 0x5E1 JUMP JUMPDEST POP PUSH1 0x60 DUP4 ADD MLOAD PUSH2 0x68B PUSH1 0x60 DUP7 ADD DUP3 PUSH2 0x620 JUMP JUMPDEST POP DUP1 SWAP2 POP POP SWAP3 SWAP2 POP POP JUMP JUMPDEST PUSH0 PUSH2 0x6A1 DUP4 DUP4 PUSH2 0x62F JUMP JUMPDEST SWAP1 POP SWAP3 SWAP2 POP POP JUMP JUMPDEST PUSH0 PUSH1 0x20 DUP3 ADD SWAP1 POP SWAP2 SWAP1 POP JUMP JUMPDEST PUSH0 PUSH2 0x6BF DUP3 PUSH2 0x53F JUMP JUMPDEST PUSH2 0x6C9 DUP2 DUP6 PUSH2 0x549 JUMP JUMPDEST SWAP4 POP DUP4 PUSH1 0x20 DUP3 MUL DUP6 ADD PUSH2 0x6DB DUP6 PUSH2 0x559 JUMP JUMPDEST DUP1 PUSH0 JUMPDEST DUP6 DUP2 LT ISZERO PUSH2 0x716 JUMPI DUP5 DUP5 SUB DUP10 MSTORE DUP2 MLOAD PUSH2 0x6F7 DUP6 DUP3 PUSH2 0x696 JUMP JUMPDEST SWAP5 POP PUSH2 0x702 DUP4 PUSH2 0x6A9 JUMP JUMPDEST SWAP3 POP PUSH1 0x20 DUP11 ADD SWAP10 POP POP PUSH1 0x1 DUP2 ADD SWAP1 POP PUSH2 0x6DE JUMP JUMPDEST POP DUP3 SWAP8 POP DUP8 SWAP6 POP POP POP POP POP POP SWAP3 SWAP2 POP POP JUMP JUMPDEST PUSH0 PUSH1 0x20 DUP3 ADD SWAP1 POP DUP2 DUP2 SUB PUSH0 DUP4 ADD MSTORE PUSH2 0x740 DUP2 DUP5 PUSH2 0x6B5 JUMP JUMPDEST SWAP1 POP SWAP3 SWAP2 POP POP JUMP JUMPDEST PUSH0 DUP3 DUP3 MSTORE PUSH1 0x20 DUP3 ADD SWAP1 POP SWAP3 SWAP2 POP POP JUMP JUMPDEST PUSH32 0x506C6561736520616D6F756E742063616E6E6F74206265207A65726F00000000 PUSH0 DUP3 ADD MSTORE POP JUMP JUMPDEST PUSH0 PUSH2 0x78C PUSH1 0x1C DUP4 PUSH2 0x748 JUMP JUMPDEST SWAP2 POP PUSH2 0x797 DUP3 PUSH2 0x758 JUMP JUMPDEST PUSH1 0x20 DUP3 ADD SWAP1 POP SWAP2 SWAP1 POP JUMP JUMPDEST PUSH0 PUSH1 0x20 DUP3 ADD SWAP1 POP DUP2 DUP2 SUB PUSH0 DUP4 ADD MSTORE PUSH2 0x7B9 DUP2 PUSH2 0x780 JUMP JUMPDEST SWAP1 POP SWAP2 SWAP1 POP JUMP JUMPDEST PUSH32 0x4E487B7100000000000000000000000000000000000000000000000000000000 PUSH0 MSTORE PUSH1 0x41 PUSH1 0x4 MSTORE PUSH1 0x24 PUSH0 REVERT JUMPDEST PUSH32 0x4E487B7100000000000000000000000000000000000000000000000000000000 PUSH0 MSTORE PUSH1 0x22 PUSH1 0x4 MSTORE PUSH1 0x24 PUSH0 REVERT JUMPDEST PUSH0 PUSH1 0x2 DUP3 DIV SWAP1 POP PUSH1 0x1 DUP3 AND DUP1 PUSH2 0x831 JUMPI PUSH1 0x7F DUP3 AND SWAP2 POP JUMPDEST PUSH1 0x20 DUP3 LT DUP2 SUB PUSH2 0x844 JUMPI PUSH2 0x843 PUSH2 0x7ED JUMP JUMPDEST JUMPDEST POP SWAP2 SWAP1 POP JUMP JUMPDEST PUSH0 DUP2 SWAP1 POP DUP2 PUSH0 MSTORE PUSH1 0x20 PUSH0 KECCAK256 SWAP1 POP SWAP2 SWAP1 POP JUMP JUMPDEST PUSH0 PUSH1 0x20 PUSH1 0x1F DUP4 ADD DIV SWAP1 POP SWAP2 SWAP1 POP JUMP JUMPDEST PUSH0 DUP3 DUP3 SHL SWAP1 POP SWAP3 SWAP2 POP POP JUMP JUMPDEST PUSH0 PUSH1 0x8 DUP4 MUL PUSH2 0x8A6 PUSH32 0xFFFFFFFFFFFFFFFFFFFFFFFFFFFFFFFFFFFFFFFFFFFFFFFFFFFFFFFFFFFFFFFF DUP3 PUSH2 0x86B JUMP JUMPDEST PUSH2 0x8B0 DUP7 DUP4 PUSH2 0x86B JUMP JUMPDEST SWAP6 POP DUP1 NOT DUP5 AND SWAP4 POP DUP1 DUP7 AND DUP5 OR SWAP3 POP POP POP SWAP4 SWAP3 POP POP POP JUMP JUMPDEST PUSH0 DUP2 SWAP1 POP SWAP2 SWAP1 POP JUMP JUMPDEST PUSH0 PUSH2 0x8EB PUSH2 0x8E6 PUSH2 0x8E1 DUP5 PUSH2 0x5D8 JUMP JUMPDEST PUSH2 0x8C8 JUMP JUMPDEST PUSH2 0x5D8 JUMP JUMPDEST SWAP1 POP SWAP2 SWAP1 POP JUMP JUMPDEST PUSH0 DUP2 SWAP1 POP SWAP2 SWAP1 POP JUMP JUMPDEST PUSH2 0x904 DUP4 PUSH2 0x8D1 JUMP JUMPDEST PUSH2 0x918 PUSH2 0x910 DUP3 PUSH2 0x8F2 JUMP JUMPDEST DUP5 DUP5 SLOAD PUSH2 0x877 JUMP JUMPDEST DUP3 SSTORE POP POP POP POP JUMP JUMPDEST PUSH0 SWAP1 JUMP JUMPDEST PUSH2 0x92C PUSH2 0x920 JUMP JUMPDEST PUSH2 0x937 DUP2 DUP5 DUP5 PUSH2 0x8FB JUMP JUMPDEST POP POP POP JUMP JUMPDEST JUMPDEST DUP2 DUP2 LT ISZERO PUSH2 0x95A JUMPI PUSH2 0x94F PUSH0 DUP3 PUSH2 0x924 JUMP JUMPDEST PUSH1 0x1 DUP2 ADD SWAP1 POP PUSH2 0x93D JUMP JUMPDEST POP POP JUMP JUMPDEST PUSH1 0x1F DUP3 GT ISZERO PUSH2 0x99F JUMPI PUSH2 0x970 DUP2 PUSH2 0x84A JUMP JUMPDEST PUSH2 0x979 DUP5 PUSH2 0x85C JUMP JUMPDEST DUP2 ADD PUSH1 0x20 DUP6 LT ISZERO PUSH2 0x988 JUMPI DUP2 SWAP1 POP JUMPDEST PUSH2 0x99C PUSH2 0x994 DUP6 PUSH2 0x85C JUMP JUMPDEST DUP4 ADD DUP3 PUSH2 0x93C JUMP JUMPDEST POP POP JUMPDEST POP POP POP JUMP JUMPDEST PUSH0 DUP3 DUP3 SHR SWAP1 POP SWAP3 SWAP2 POP POP JUMP JUMPDEST PUSH0 PUSH2 0x9BF PUSH0 NOT DUP5 PUSH1 0x8 MUL PUSH2 0x9A4 JUMP JUMPDEST NOT DUP1 DUP4 AND SWAP2 POP POP SWAP3 SWAP2 POP POP JUMP JUMPDEST PUSH0 PUSH2 0x9D7 DUP4 DUP4 PUSH2 0x9B0 JUMP JUMPDEST SWAP2 POP DUP3 PUSH1 0x2 MUL DUP3 OR SWAP1 POP SWAP3 SWAP2 POP POP JUMP JUMPDEST PUSH2 0x9F0 DUP3 PUSH2 0x568 JUMP JUMPDEST PUSH8 0xFFFFFFFFFFFFFFFF DUP2 GT ISZERO PUSH2 0xA09 JUMPI PUSH2 0xA08 PUSH2 0x7C0 JUMP JUMPDEST JUMPDEST PUSH2 0xA13 DUP3 SLOAD PUSH2 0x81A JUMP JUMPDEST PUSH2 0xA1E DUP3 DUP3 DUP6 PUSH2 0x95E JUMP JUMPDEST PUSH0 PUSH1 0x20 SWAP1 POP PUSH1 0x1F DUP4 GT PUSH1 0x1 DUP2 EQ PUSH2 0xA4F JUMPI PUSH0 DUP5 ISZERO PUSH2 0xA3D JUMPI DUP3 DUP8 ADD MLOAD SWAP1 POP JUMPDEST PUSH2 0xA47 DUP6 DUP3 PUSH2 0x9CC JUMP JUMPDEST DUP7 SSTORE POP PUSH2 0xAAE JUMP JUMPDEST PUSH1 0x1F NOT DUP5 AND PUSH2 0xA5D DUP7 PUSH2 0x84A JUMP JUMPDEST PUSH0 JUMPDEST DUP3 DUP2 LT ISZERO PUSH2 0xA84 JUMPI DUP5 DUP10 ADD MLOAD DUP3 SSTORE PUSH1 0x1 DUP3 ADD SWAP2 POP PUSH1 0x20 DUP6 ADD SWAP5 POP PUSH1 0x20 DUP2 ADD SWAP1 POP PUSH2 0xA5F JUMP JUMPDEST DUP7 DUP4 LT ISZERO PUSH2 0xAA1 JUMPI DUP5 DUP10 ADD MLOAD PUSH2 0xA9D PUSH1 0x1F DUP10 AND DUP3 PUSH2 0x9B0 JUMP JUMPDEST DUP4 SSTORE POP JUMPDEST PUSH1 0x1 PUSH1 0x2 DUP9 MUL ADD DUP9 SSTORE POP POP POP JUMPDEST POP POP POP POP POP POP JUMP INVALID LOG2 PUSH5 0x6970667358 0x22 SLT KECCAK256 0xC3 0xA8 SWAP15 0xEC 0xB9 PUSH2 0x7833 SWAP1 0x2E 0xC9 MULMOD XOR GT ISZERO PUSH30 0xF71A1732B2ABEA012BA773A4CB60F3E564736F6C63430008190033000000 "
        },
        "gasEstimates": {
          "creation": {
            "codeDepositCost": "559200",
            "executionCost": "24857",
            "totalCost": "584057"
          },
          "external": {
            "buyChai(string,string)": "infinite",
            "getMemos()": "infinite"
          }
        },
        "methodIdentifiers": {
          "buyChai(string,string)": "6a13d859",
          "getMemos()": "865c5172"
        }
      },
      "storageLayout": {
        "storage": [
          {
            "astId": 14,
            "contract": "contracts/3_Ballot.sol:Chai",
            "label": "memos",
            "offset": 0,
            "slot": "0",
            "type": "t_array(t_struct(Memo)10_storage)dyn_storage"
          },
          {
            "astId": 16,
            "contract": "contracts/3_Ballot.sol:Chai",
            "label": "owner",
            "offset": 0,
            "slot": "1",
            "type": "t_address_payable"
          }
        ],
        "types": {
          "t_address": {
            "encoding": "inplace",
            "label": "address",
            "numberOfBytes": "20"
          },
          "t_address_payable": {
            "encoding": "inplace",
            "label": "address payable",
            "numberOfBytes": "20"
          },
          "t_array(t_struct(Memo)10_storage)dyn_storage": {
            "base": "t_struct(Memo)10_storage",
            "encoding": "dynamic_array",
            "label": "struct Chai.Memo[]",
            "numberOfBytes": "32"
          },
          "t_string_storage": {
            "encoding": "bytes",
            "label": "string",
            "numberOfBytes": "32"
          },
          "t_struct(Memo)10_storage": {
            "encoding": "inplace",
            "label": "struct Chai.Memo",
            "members": [
              {
                "astId": 3,
                "contract": "contracts/3_Ballot.sol:Chai",
                "label": "name",
                "offset": 0,
                "slot": "0",
                "type": "t_string_storage"
              },
              {
                "astId": 5,
                "contract": "contracts/3_Ballot.sol:Chai",
                "label": "message",
                "offset": 0,
                "slot": "1",
                "type": "t_string_storage"
              },
              {
                "astId": 7,
                "contract": "contracts/3_Ballot.sol:Chai",
                "label": "timestamp",
                "offset": 0,
                "slot": "2",
                "type": "t_uint256"
              },
              {
                "astId": 9,
                "contract": "contracts/3_Ballot.sol:Chai",
                "label": "from",
                "offset": 0,
                "slot": "3",
                "type": "t_address"
              }
            ],
            "numberOfBytes": "128"
          },
          "t_uint256": {
            "encoding": "inplace",
            "label": "uint256",
            "numberOfBytes": "32"
          }
        }
      },
      "userdoc": {
        "kind": "user",
        "methods": {},
        "version": 1
      }
    }
  }
}