{
  "_format": "hh-sol-artifact-1",
  "contractName": "ZKLiquidAutoPool",
  "sourceName": "contracts/Pool.sol",
  "abi": [
    {
      "inputs": [
        {
          "internalType": "address",
          "name": "_router",
          "type": "address"
        },
        {
          "internalType": "address",
          "name": "_link",
          "type": "address"
        },
        {
          "internalType": "address",
          "name": "_owner",
          "type": "address"
        },
        {
          "internalType": "uint256",
          "name": "updateInterval",
          "type": "uint256"
        }
      ],
      "stateMutability": "nonpayable",
      "type": "constructor"
    },
    {
      "inputs": [
        {
          "internalType": "uint64",
          "name": "destinationChainSelector",
          "type": "uint64"
        }
      ],
      "name": "DestinationChainNotAllowlisted",
      "type": "error"
    },
    {
      "inputs": [],
      "name": "EnforcedPause",
      "type": "error"
    },
    {
      "inputs": [],
      "name": "ExpectedPause",
      "type": "error"
    },
    {
      "inputs": [
        {
          "internalType": "address",
          "name": "owner",
          "type": "address"
        },
        {
          "internalType": "address",
          "name": "target",
          "type": "address"
        },
        {
          "internalType": "uint256",
          "name": "value",
          "type": "uint256"
        }
      ],
      "name": "FailedToWithdrawEth",
      "type": "error"
    },
    {
      "inputs": [],
      "name": "InvalidReceiverAddress",
      "type": "error"
    },
    {
      "inputs": [
        {
          "internalType": "address",
          "name": "router",
          "type": "address"
        }
      ],
      "name": "InvalidRouter",
      "type": "error"
    },
    {
      "inputs": [
        {
          "internalType": "uint256",
          "name": "currentBalance",
          "type": "uint256"
        },
        {
          "internalType": "uint256",
          "name": "calculatedFees",
          "type": "uint256"
        }
      ],
      "name": "NotEnoughBalance",
      "type": "error"
    },
    {
      "inputs": [],
      "name": "NothingToWithdraw",
      "type": "error"
    },
    {
      "inputs": [],
      "name": "ReentrancyGuardReentrantCall",
      "type": "error"
    },
    {
      "inputs": [
        {
          "internalType": "address",
          "name": "sender",
          "type": "address"
        }
      ],
      "name": "SenderNotAllowlisted",
      "type": "error"
    },
    {
      "inputs": [
        {
          "internalType": "uint64",
          "name": "sourceChainSelector",
          "type": "uint64"
        }
      ],
      "name": "SourceChainNotAllowlisted",
      "type": "error"
    },
    {
      "anonymous": false,
      "inputs": [
        {
          "indexed": true,
          "internalType": "bytes32",
          "name": "messageId",
          "type": "bytes32"
        },
        {
          "indexed": true,
          "internalType": "uint64",
          "name": "sourceChainSelector",
          "type": "uint64"
        },
        {
          "indexed": false,
          "internalType": "address",
          "name": "sender",
          "type": "address"
        },
        {
          "components": [
            {
              "internalType": "address",
              "name": "token",
              "type": "address"
            },
            {
              "internalType": "uint256",
              "name": "amount",
              "type": "uint256"
            },
            {
              "internalType": "address",
              "name": "recipient",
              "type": "address"
            }
          ],
          "indexed": false,
          "internalType": "struct ZKLiquidAutoPool.DataStruct",
          "name": "transferData",
          "type": "tuple"
        }
      ],
      "name": "MessageReceived",
      "type": "event"
    },
    {
      "anonymous": false,
      "inputs": [
        {
          "indexed": true,
          "internalType": "bytes32",
          "name": "messageId",
          "type": "bytes32"
        },
        {
          "indexed": true,
          "internalType": "uint64",
          "name": "destinationChainSelector",
          "type": "uint64"
        },
        {
          "indexed": false,
          "internalType": "address",
          "name": "receiver",
          "type": "address"
        },
        {
          "components": [
            {
              "internalType": "address",
              "name": "token",
              "type": "address"
            },
            {
              "internalType": "uint256",
              "name": "amount",
              "type": "uint256"
            },
            {
              "internalType": "address",
              "name": "recipient",
              "type": "address"
            }
          ],
          "indexed": false,
          "internalType": "struct ZKLiquidAutoPool.DataStruct",
          "name": "transferData",
          "type": "tuple"
        },
        {
          "indexed": false,
          "internalType": "address",
          "name": "feeToken",
          "type": "address"
        },
        {
          "indexed": false,
          "internalType": "uint256",
          "name": "fees",
          "type": "uint256"
        }
      ],
      "name": "MessageSent",
      "type": "event"
    },
    {
      "anonymous": false,
      "inputs": [
        {
          "indexed": false,
          "internalType": "address",
          "name": "account",
          "type": "address"
        }
      ],
      "name": "Paused",
      "type": "event"
    },
    {
      "anonymous": false,
      "inputs": [
        {
          "indexed": false,
          "internalType": "address",
          "name": "account",
          "type": "address"
        }
      ],
      "name": "Unpaused",
      "type": "event"
    },
    {
      "inputs": [
        {
          "internalType": "uint64",
          "name": "_destinationChainSelector",
          "type": "uint64"
        },
        {
          "internalType": "bool",
          "name": "allowed",
          "type": "bool"
        }
      ],
      "name": "allowlistDestinationChain",
      "outputs": [],
      "stateMutability": "nonpayable",
      "type": "function"
    },
    {
      "inputs": [
        {
          "internalType": "address",
          "name": "_sender",
          "type": "address"
        },
        {
          "internalType": "bool",
          "name": "allowed",
          "type": "bool"
        }
      ],
      "name": "allowlistSender",
      "outputs": [],
      "stateMutability": "nonpayable",
      "type": "function"
    },
    {
      "inputs": [
        {
          "internalType": "uint64",
          "name": "_sourceChainSelector",
          "type": "uint64"
        },
        {
          "internalType": "bool",
          "name": "allowed",
          "type": "bool"
        }
      ],
      "name": "allowlistSourceChain",
      "outputs": [],
      "stateMutability": "nonpayable",
      "type": "function"
    },
    {
      "inputs": [
        {
          "internalType": "uint64",
          "name": "",
          "type": "uint64"
        }
      ],
      "name": "allowlistedDestinationChains",
      "outputs": [
        {
          "internalType": "bool",
          "name": "",
          "type": "bool"
        }
      ],
      "stateMutability": "view",
      "type": "function"
    },
    {
      "inputs": [
        {
          "internalType": "address",
          "name": "",
          "type": "address"
        }
      ],
      "name": "allowlistedSenders",
      "outputs": [
        {
          "internalType": "bool",
          "name": "",
          "type": "bool"
        }
      ],
      "stateMutability": "view",
      "type": "function"
    },
    {
      "inputs": [
        {
          "internalType": "uint64",
          "name": "",
          "type": "uint64"
        }
      ],
      "name": "allowlistedSourceChains",
      "outputs": [
        {
          "internalType": "bool",
          "name": "",
          "type": "bool"
        }
      ],
      "stateMutability": "view",
      "type": "function"
    },
    {
      "inputs": [
        {
          "components": [
            {
              "internalType": "bytes32",
              "name": "messageId",
              "type": "bytes32"
            },
            {
              "internalType": "uint64",
              "name": "sourceChainSelector",
              "type": "uint64"
            },
            {
              "internalType": "bytes",
              "name": "sender",
              "type": "bytes"
            },
            {
              "internalType": "bytes",
              "name": "data",
              "type": "bytes"
            },
            {
              "components": [
                {
                  "internalType": "address",
                  "name": "token",
                  "type": "address"
                },
                {
                  "internalType": "uint256",
                  "name": "amount",
                  "type": "uint256"
                }
              ],
              "internalType": "struct Client.EVMTokenAmount[]",
              "name": "destTokenAmounts",
              "type": "tuple[]"
            }
          ],
          "internalType": "struct Client.Any2EVMMessage",
          "name": "message",
          "type": "tuple"
        }
      ],
      "name": "ccipReceive",
      "outputs": [],
      "stateMutability": "nonpayable",
      "type": "function"
    },
    {
      "inputs": [
        {
          "internalType": "bytes",
          "name": "",
          "type": "bytes"
        }
      ],
      "name": "checkUpkeep",
      "outputs": [
        {
          "internalType": "bool",
          "name": "upkeepNeeded",
          "type": "bool"
        },
        {
          "internalType": "bytes",
          "name": "",
          "type": "bytes"
        }
      ],
      "stateMutability": "view",
      "type": "function"
    },
    {
      "inputs": [],
      "name": "getLastReceivedMessageDetails",
      "outputs": [
        {
          "internalType": "bytes32",
          "name": "messageId",
          "type": "bytes32"
        },
        {
          "components": [
            {
              "internalType": "address",
              "name": "token",
              "type": "address"
            },
            {
              "internalType": "uint256",
              "name": "amount",
              "type": "uint256"
            },
            {
              "internalType": "address",
              "name": "recipient",
              "type": "address"
            }
          ],
          "internalType": "struct ZKLiquidAutoPool.DataStruct",
          "name": "transferData",
          "type": "tuple"
        }
      ],
      "stateMutability": "view",
      "type": "function"
    },
    {
      "inputs": [],
      "name": "getRouter",
      "outputs": [
        {
          "internalType": "address",
          "name": "",
          "type": "address"
        }
      ],
      "stateMutability": "view",
      "type": "function"
    },
    {
      "inputs": [],
      "name": "interval",
      "outputs": [
        {
          "internalType": "uint256",
          "name": "",
          "type": "uint256"
        }
      ],
      "stateMutability": "view",
      "type": "function"
    },
    {
      "inputs": [],
      "name": "lastTimeStamp",
      "outputs": [
        {
          "internalType": "uint256",
          "name": "",
          "type": "uint256"
        }
      ],
      "stateMutability": "view",
      "type": "function"
    },
    {
      "inputs": [],
      "name": "owner",
      "outputs": [
        {
          "internalType": "address payable",
          "name": "",
          "type": "address"
        }
      ],
      "stateMutability": "view",
      "type": "function"
    },
    {
      "inputs": [],
      "name": "paused",
      "outputs": [
        {
          "internalType": "bool",
          "name": "",
          "type": "bool"
        }
      ],
      "stateMutability": "view",
      "type": "function"
    },
    {
      "inputs": [
        {
          "internalType": "address",
          "name": "",
          "type": "address"
        }
      ],
      "name": "pendingTransfer",
      "outputs": [
        {
          "internalType": "uint256",
          "name": "",
          "type": "uint256"
        }
      ],
      "stateMutability": "view",
      "type": "function"
    },
    {
      "inputs": [
        {
          "internalType": "address",
          "name": "",
          "type": "address"
        }
      ],
      "name": "pendingTransferToken",
      "outputs": [
        {
          "internalType": "address",
          "name": "",
          "type": "address"
        }
      ],
      "stateMutability": "view",
      "type": "function"
    },
    {
      "inputs": [
        {
          "internalType": "bytes",
          "name": "",
          "type": "bytes"
        }
      ],
      "name": "performUpkeep",
      "outputs": [],
      "stateMutability": "nonpayable",
      "type": "function"
    },
    {
      "inputs": [
        {
          "internalType": "uint64",
          "name": "_destinationChainSelector",
          "type": "uint64"
        },
        {
          "internalType": "address",
          "name": "_receiver",
          "type": "address"
        },
        {
          "internalType": "address",
          "name": "_token",
          "type": "address"
        },
        {
          "internalType": "uint256",
          "name": "_amount",
          "type": "uint256"
        },
        {
          "internalType": "address",
          "name": "_recipient",
          "type": "address"
        }
      ],
      "name": "sendTokenPayLINK",
      "outputs": [
        {
          "internalType": "bytes32",
          "name": "messageId",
          "type": "bytes32"
        }
      ],
      "stateMutability": "nonpayable",
      "type": "function"
    },
    {
      "inputs": [
        {
          "internalType": "address",
          "name": "_source",
          "type": "address"
        },
        {
          "internalType": "uint64",
          "name": "_selector",
          "type": "uint64"
        },
        {
          "internalType": "address",
          "name": "_destination",
          "type": "address"
        }
      ],
      "name": "setSourceSelectorDestination",
      "outputs": [],
      "stateMutability": "nonpayable",
      "type": "function"
    },
    {
      "inputs": [
        {
          "internalType": "address",
          "name": "",
          "type": "address"
        },
        {
          "internalType": "uint64",
          "name": "",
          "type": "uint64"
        }
      ],
      "name": "sourceSelectorDestination",
      "outputs": [
        {
          "internalType": "address",
          "name": "",
          "type": "address"
        }
      ],
      "stateMutability": "view",
      "type": "function"
    },
    {
      "inputs": [
        {
          "internalType": "uint256",
          "name": "",
          "type": "uint256"
        }
      ],
      "name": "supportedTokens",
      "outputs": [
        {
          "internalType": "address",
          "name": "",
          "type": "address"
        }
      ],
      "stateMutability": "view",
      "type": "function"
    },
    {
      "inputs": [
        {
          "internalType": "bytes4",
          "name": "interfaceId",
          "type": "bytes4"
        }
      ],
      "name": "supportsInterface",
      "outputs": [
        {
          "internalType": "bool",
          "name": "",
          "type": "bool"
        }
      ],
      "stateMutability": "pure",
      "type": "function"
    },
    {
      "inputs": [
        {
          "internalType": "uint256",
          "name": "",
          "type": "uint256"
        }
      ],
      "name": "transferAddresses",
      "outputs": [
        {
          "internalType": "address",
          "name": "",
          "type": "address"
        }
      ],
      "stateMutability": "view",
      "type": "function"
    },
    {
      "inputs": [
        {
          "internalType": "address",
          "name": "_beneficiary",
          "type": "address"
        }
      ],
      "name": "withdraw",
      "outputs": [],
      "stateMutability": "nonpayable",
      "type": "function"
    },
    {
      "inputs": [
        {
          "internalType": "address",
          "name": "_beneficiary",
          "type": "address"
        },
        {
          "internalType": "address",
          "name": "_token",
          "type": "address"
        }
      ],
      "name": "withdrawToken",
      "outputs": [],
      "stateMutability": "nonpayable",
      "type": "function"
    },
    {
      "stateMutability": "payable",
      "type": "receive"
    }
  ],
  "bytecode": "0x60c06040523480156200001157600080fd5b5060405162002390380380620023908339810160408190526200003491620000d0565b60016000819055805460ff19169055836001600160a01b03811662000073576040516335fdcccd60e21b81526000600482015260240160405180910390fd5b6001600160a01b03908116608052600a80549382166001600160a01b031994851617905560098054949091169390921692909217905560a0525062000122565b80516001600160a01b0381168114620000cb57600080fd5b919050565b60008060008060808587031215620000e757600080fd5b620000f285620000b3565b93506200010260208601620000b3565b92506200011260408601620000b3565b6060959095015193969295505050565b60805160a05161223a620001566000396000818161048c015261077e01526000818161051e01526108ff015261223a6000f3fe60806040526004361061016a5760003560e01c806375c67c66116100d157806396d3b83d1161008a578063b3ed780911610064578063b3ed780914610542578063c625562614610562578063db04fa4914610582578063eab5b02c146105a257600080fd5b806396d3b83d146104ae578063ae7fd3bc146104ce578063b0f479a11461050f57600080fd5b806375c67c66146103bd57806381ebdd79146103ed57806385572ffb1461041a578063866975271461043a5780638da5cb5b1461045a578063947a36fb1461047a57600080fd5b806345648c031161012357806345648c03146102b15780634585e33b146102ff57806351cff8d91461031f5780635c975abb1461033f5780636159ada1146103575780636e04ff0d1461038757600080fd5b806301ffc9a71461017657806303765be7146101ab578063263596a5146101cd5780633aeac4e11461023d5780633f3b3b271461025d5780634030d5211461028157600080fd5b3661017157005b600080fd5b34801561018257600080fd5b50610196610191366004611984565b6105c2565b60405190151581526020015b60405180910390f35b3480156101b757600080fd5b506101cb6101c63660046119df565b6105f9565b005b3480156101d957600080fd5b5061022f604080516060810182526000808252602082018190529181018290525050600254604080516060810182526003546001600160a01b039081168252600454602083015260055416918101919091529091565b6040516101a2929190611a4d565b34801561024957600080fd5b506101cb610258366004611a61565b6106ab565b34801561026957600080fd5b50610273600b5481565b6040519081526020016101a2565b34801561028d57600080fd5b5061019661029c366004611a9a565b60076020526000908152604090205460ff1681565b3480156102bd57600080fd5b506102e76102cc366004611ab5565b600d602052600090815260409020546001600160a01b031681565b6040516001600160a01b0390911681526020016101a2565b34801561030b57600080fd5b506101cb61031a366004611ad2565b61077c565b34801561032b57600080fd5b506101cb61033a366004611ab5565b61081b565b34801561034b57600080fd5b5060015460ff16610196565b34801561036357600080fd5b50610196610372366004611ab5565b60086020526000908152604090205460ff1681565b34801561039357600080fd5b506103af6103a2366004611ad2565b5050600e54151590606090565b6040516101a2929190611b93565b3480156103c957600080fd5b506101966103d8366004611a9a565b60066020526000908152604090205460ff1681565b3480156103f957600080fd5b50610273610408366004611ab5565b600c6020526000908152604090205481565b34801561042657600080fd5b506101cb610435366004611bae565b6108f4565b34801561044657600080fd5b506102e7610455366004611be8565b610953565b34801561046657600080fd5b50600a546102e7906001600160a01b031681565b34801561048657600080fd5b506102737f000000000000000000000000000000000000000000000000000000000000000081565b3480156104ba57600080fd5b506101cb6104c9366004611c0f565b61097d565b3480156104da57600080fd5b506102e76104e9366004611c3b565b600f6020908152600092835260408084209091529082529020546001600160a01b031681565b34801561051b57600080fd5b507f00000000000000000000000000000000000000000000000000000000000000006102e7565b34801561054e57600080fd5b5061027361055d366004611c70565b6109d2565b34801561056e57600080fd5b506102e761057d366004611be8565b610de3565b34801561058e57600080fd5b506101cb61059d366004611c0f565b610df3565b3480156105ae57600080fd5b506101cb6105bd366004611cd6565b610e48565b60006001600160e01b031982166385572ffb60e01b14806105f357506001600160e01b031982166301ffc9a760e01b145b92915050565b600a546001600160a01b0316331461062c5760405162461bcd60e51b815260040161062390611cf4565b60405180910390fd5b6001600160a01b039283166000818152600f602090815260408083206001600160401b0390961683529490529283208054949092166001600160a01b0319948516179091556010805460018101825592527f1b6847dc741a1b0cd08d278845f9d819d87b734759afb55fe2de5cb82a9ae6729091018054909216179055565b600a546001600160a01b031633146106d55760405162461bcd60e51b815260040161062390611cf4565b6040516370a0823160e01b81523060048201526000906001600160a01b038316906370a0823190602401602060405180830381865afa15801561071c573d6000803e3d6000fd5b505050506040513d601f19601f820116820180604052508101906107409190611d35565b90508060000361076357604051630686827b60e51b815260040160405180910390fd5b6107776001600160a01b0383168483610e9d565b505050565b7f0000000000000000000000000000000000000000000000000000000000000000600b54426107ab9190611d64565b11156108175742600b55600e805460408051602080840282018101909252828152610817939092909183018282801561080d57602002820191906000526020600020905b81546001600160a01b031681526001909101906020018083116107ef575b5050505050610eef565b5050565b600a546001600160a01b031633146108455760405162461bcd60e51b815260040161062390611cf4565b47600081900361086857604051630686827b60e51b815260040160405180910390fd5b6000826001600160a01b03168260405160006040518083038185875af1925050503d80600081146108b5576040519150601f19603f3d011682016040523d82523d6000602084013e6108ba565b606091505b505090508061077757604051639d11f56360e01b81523360048201526001600160a01b038416602482015260448101839052606401610623565b336001600160a01b037f0000000000000000000000000000000000000000000000000000000000000000161461093f576040516335fdcccd60e21b8152336004820152602401610623565b61095061094b82611f22565b610fe6565b50565b600e818154811061096357600080fd5b6000918252602090912001546001600160a01b0316905081565b600a546001600160a01b031633146109a75760405162461bcd60e51b815260040161062390611cf4565b6001600160401b03919091166000908152600660205260409020805460ff1916911515919091179055565b6001600160401b038516600090815260066020526040812054869060ff16610a1857604051630a503cdb60e01b81526001600160401b0382166004820152602401610623565b856001600160a01b038116610a405760405163502ffa3f60e11b815260040160405180910390fd5b610a4b8633876111d2565b506001600160a01b038087166000908152600f602090815260408083206001600160401b038d16845282528083205481516060810183529085168082529281018a9052888516918101919091526009549193909291610aae918c91859116611241565b90506000306001600160a01b031663b0f479a16040518163ffffffff1660e01b8152600401602060405180830381865afa158015610af0573d6000803e3d6000fd5b505050506040513d601f19601f82011682018060405250810190610b149190611fce565b90506000816001600160a01b03166320487ded8e856040518363ffffffff1660e01b8152600401610b46929190611feb565b602060405180830381865afa158015610b63573d6000803e3d6000fd5b505050506040513d601f19601f82011682018060405250810190610b879190611d35565b6009546040516370a0823160e01b81523060048201529192506001600160a01b0316906370a0823190602401602060405180830381865afa158015610bd0573d6000803e3d6000fd5b505050506040513d601f19601f82011682018060405250810190610bf49190611d35565b811115610c8b576009546040516370a0823160e01b81523060048201526001600160a01b03909116906370a0823190602401602060405180830381865afa158015610c43573d6000803e3d6000fd5b505050506040513d601f19601f82011682018060405250810190610c679190611d35565b604051634787a10360e11b8152600481019190915260248101829052604401610623565b60095460405163095ea7b360e01b81526001600160a01b038481166004830152602482018490529091169063095ea7b3906044016020604051808303816000875af1158015610cde573d6000803e3d6000fd5b505050506040513d601f19601f82011682018060405250810190610d0291906120c4565b50816001600160a01b03166396f4e9f98e856040518363ffffffff1660e01b8152600401610d31929190611feb565b6020604051808303816000875af1158015610d50573d6000803e3d6000fd5b505050506040513d601f19601f82011682018060405250810190610d749190611d35565b97508c6001600160401b0316887f39efda1d1642617a7a42954881e883d95a92028a4ba52d8a5ac49118ccbe53bb8e87600960009054906101000a90046001600160a01b031686604051610dcb94939291906120e1565b60405180910390a35050505050505095945050505050565b6010818154811061096357600080fd5b600a546001600160a01b03163314610e1d5760405162461bcd60e51b815260040161062390611cf4565b6001600160401b03919091166000908152600760205260409020805460ff1916911515919091179055565b600a546001600160a01b03163314610e725760405162461bcd60e51b815260040161062390611cf4565b6001600160a01b03919091166000908152600860205260409020805460ff1916911515919091179055565b604080516001600160a01b038416602482015260448082018490528251808303909101815260649091019091526020810180516001600160e01b031663a9059cbb60e01b17905261077790849061138d565b805160005b81811015610fdd576000838281518110610f1057610f10612113565b6020908102919091018101516001600160a01b038082166000908152600c8452604080822054600d909552812054929450911690610f4f82858561145f565b905080610f965760405162461bcd60e51b8152602060048201526015602482015274151bdad95b881d1c985b9cd9995c8819985a5b1959605a1b6044820152606401610623565b5050506001600160a01b03166000908152600c60209081526040808320839055600d909152902080546001600160a01b031916905580610fd581612129565b915050610ef4565b5061081761151b565b806020015181604001518060200190518101906110039190611fce565b6001600160401b03821660009081526007602052604090205460ff16611047576040516326bfad9160e21b81526001600160401b0383166004820152602401610623565b6001600160a01b03811660009081526008602052604090205460ff1661108b576040516338c08ef960e11b81526001600160a01b0382166004820152602401610623565b8251600255606083015180516110a991602091810182019101612142565b8051600380546001600160a01b039283166001600160a01b0319918216178255602080850151600481905560409586015160058054918716918516821781556000918252600c8452878220929092559354815486168552600d83528685208054851691871691909117905554600e805460018101825594527fbb7b4a454dc3493923482f07822329ed19e8244eff582cc204f8554c3620c3fd9093018054909216929093169190911790558481015185519286015180516001600160401b0390921693927fe5a176320136b99487dde308c2d4b091ba7db576086fa9a5d9dd62d4c9a500cf9261119f9290810182019101611fce565b86606001518060200190518101906111b79190612142565b6040516111c59291906121aa565b60405180910390a3505050565b60006001600160a01b03841661122a5760405162461bcd60e51b815260206004820181905260248201527f546f6b656e20616464726573732073686f756c64206e6f74206265207a65726f6044820152606401610623565b61123684843085611529565b5060015b9392505050565b61127c6040518060a0016040528060608152602001606081526020016060815260200160006001600160a01b03168152602001606081525090565b6040805160a081019091526001600160a01b03851660c08201528060e081016040516020818303038152906040528152602001846040516020016112c091906121c7565b60408051601f198184030181529190528152602001600060405190808252806020026020018201604052801561131c57816020015b60408051808201909152600080825260208201528152602001906001900390816112f55790505b508152602001836001600160a01b03168152602001611383604051806020016040528062030d4081525060408051915160248084019190915281518084039091018152604490920190526020810180516001600160e01b03166397a657c960e01b17905290565b9052949350505050565b60006113e2826040518060400160405280602081526020017f5361666545524332303a206c6f772d6c6576656c2063616c6c206661696c6564815250856001600160a01b03166116679092919063ffffffff16565b805190915015610777578080602001905181019061140091906120c4565b6107775760405162461bcd60e51b815260206004820152602a60248201527f5361666545524332303a204552433230206f7065726174696f6e20646964206e6044820152691bdd081cdd58d8d9595960b21b6064820152608401610623565b600061146961167e565b6001600160a01b03841661150357814710156114c75760405162461bcd60e51b815260206004820152601b60248201527f4e6f7420656e6f75676820636f6e74726163742062616c616e636500000000006044820152606401610623565b6040516001600160a01b0384169083156108fc029084906000818181858888f193505050501580156114fd573d6000803e3d6000fd5b5061150e565b61150e8484846116a8565b50600161123a6001600055565b611527600e6000611952565b565b604080516001600160a01b0385811660248301528481166044830152606480830185905283518084039091018152608490920183526020820180516001600160e01b03166323b872dd60e01b179052915160009283929088169161158d91906121d5565b6000604051808303816000865af19150503d80600081146115ca576040519150601f19603f3d011682016040523d82523d6000602084013e6115cf565b606091505b50915091508180156115f95750805115806115f95750808060200190518101906115f991906120c4565b61165f5760405162461bcd60e51b815260206004820152603160248201527f5472616e7366657248656c7065723a3a7472616e7366657246726f6d3a207472604482015270185b9cd9995c919c9bdb4819985a5b1959607a1b6064820152608401610623565b505050505050565b606061167684846000856117d9565b949350505050565b6002600054036116a157604051633ee5aeb560e01b815260040160405180910390fd5b6002600055565b604080516001600160a01b038481166024830152604480830185905283518084039091018152606490920183526020820180516001600160e01b031663a9059cbb60e01b179052915160009283929087169161170491906121d5565b6000604051808303816000865af19150503d8060008114611741576040519150601f19603f3d011682016040523d82523d6000602084013e611746565b606091505b509150915081801561177057508051158061177057508080602001905181019061177091906120c4565b6117d25760405162461bcd60e51b815260206004820152602d60248201527f5472616e7366657248656c7065723a3a736166655472616e736665723a20747260448201526c185b9cd9995c8819985a5b1959609a1b6064820152608401610623565b5050505050565b60608247101561183a5760405162461bcd60e51b815260206004820152602660248201527f416464726573733a20696e73756666696369656e742062616c616e636520666f6044820152651c8818d85b1b60d21b6064820152608401610623565b600080866001600160a01b0316858760405161185691906121d5565b60006040518083038185875af1925050503d8060008114611893576040519150601f19603f3d011682016040523d82523d6000602084013e611898565b606091505b50915091506118a9878383876118b4565b979650505050505050565b6060831561192357825160000361191c576001600160a01b0385163b61191c5760405162461bcd60e51b815260206004820152601d60248201527f416464726573733a2063616c6c20746f206e6f6e2d636f6e74726163740000006044820152606401610623565b5081611676565b61167683838151156119385781518083602001fd5b8060405162461bcd60e51b815260040161062391906121f1565b508054600082559060005260206000209081019061095091905b80821115611980576000815560010161196c565b5090565b60006020828403121561199657600080fd5b81356001600160e01b03198116811461123a57600080fd5b6001600160a01b038116811461095057600080fd5b80356001600160401b03811681146119da57600080fd5b919050565b6000806000606084860312156119f457600080fd5b83356119ff816119ae565b9250611a0d602085016119c3565b91506040840135611a1d816119ae565b809150509250925092565b80516001600160a01b0390811683526020808301519084015260409182015116910152565b8281526080810161123a6020830184611a28565b60008060408385031215611a7457600080fd5b8235611a7f816119ae565b91506020830135611a8f816119ae565b809150509250929050565b600060208284031215611aac57600080fd5b61123a826119c3565b600060208284031215611ac757600080fd5b813561123a816119ae565b60008060208385031215611ae557600080fd5b82356001600160401b0380821115611afc57600080fd5b818501915085601f830112611b1057600080fd5b813581811115611b1f57600080fd5b866020828501011115611b3157600080fd5b60209290920196919550909350505050565b60005b83811015611b5e578181015183820152602001611b46565b50506000910152565b60008151808452611b7f816020860160208601611b43565b601f01601f19169290920160200192915050565b82151581526040602082015260006116766040830184611b67565b600060208284031215611bc057600080fd5b81356001600160401b03811115611bd657600080fd5b820160a0818503121561123a57600080fd5b600060208284031215611bfa57600080fd5b5035919050565b801515811461095057600080fd5b60008060408385031215611c2257600080fd5b611c2b836119c3565b91506020830135611a8f81611c01565b60008060408385031215611c4e57600080fd5b8235611c59816119ae565b9150611c67602084016119c3565b90509250929050565b600080600080600060a08688031215611c8857600080fd5b611c91866119c3565b94506020860135611ca1816119ae565b93506040860135611cb1816119ae565b9250606086013591506080860135611cc8816119ae565b809150509295509295909350565b60008060408385031215611ce957600080fd5b8235611c2b816119ae565b60208082526021908201527f4f6e6c79206f776e65722063616e2063616c6c20746869732066756e6374696f6040820152603760f91b606082015260800190565b600060208284031215611d4757600080fd5b5051919050565b634e487b7160e01b600052601160045260246000fd5b818103818111156105f3576105f3611d4e565b634e487b7160e01b600052604160045260246000fd5b604080519081016001600160401b0381118282101715611daf57611daf611d77565b60405290565b60405160a081016001600160401b0381118282101715611daf57611daf611d77565b604051601f8201601f191681016001600160401b0381118282101715611dff57611dff611d77565b604052919050565b600082601f830112611e1857600080fd5b81356001600160401b03811115611e3157611e31611d77565b611e44601f8201601f1916602001611dd7565b818152846020838601011115611e5957600080fd5b816020850160208301376000918101602001919091529392505050565b600082601f830112611e8757600080fd5b813560206001600160401b03821115611ea257611ea2611d77565b611eb0818360051b01611dd7565b82815260069290921b84018101918181019086841115611ecf57600080fd5b8286015b84811015611f175760408189031215611eec5760008081fd5b611ef4611d8d565b8135611eff816119ae565b81528185013585820152835291830191604001611ed3565b509695505050505050565b600060a08236031215611f3457600080fd5b611f3c611db5565b82358152611f4c602084016119c3565b602082015260408301356001600160401b0380821115611f6b57600080fd5b611f7736838701611e07565b60408401526060850135915080821115611f9057600080fd5b611f9c36838701611e07565b60608401526080850135915080821115611fb557600080fd5b50611fc236828601611e76565b60808301525092915050565b600060208284031215611fe057600080fd5b815161123a816119ae565b600060406001600160401b038516835260208181850152845160a08386015261201760e0860182611b67565b905081860151603f19808784030160608801526120348383611b67565b88860151888203830160808a01528051808352908601945060009350908501905b8084101561208757845180516001600160a01b0316835286015186830152938501936001939093019290860190612055565b5060608901516001600160a01b031660a08901526080890151888203830160c08a015295506120b68187611b67565b9a9950505050505050505050565b6000602082840312156120d657600080fd5b815161123a81611c01565b6001600160a01b03858116825260c08201906121006020840187611a28565b93909316608082015260a0015292915050565b634e487b7160e01b600052603260045260246000fd5b60006001820161213b5761213b611d4e565b5060010190565b60006060828403121561215457600080fd5b604051606081018181106001600160401b038211171561217657612176611d77565b6040528251612184816119ae565b815260208381015190820152604083015161219e816119ae565b60408201529392505050565b6001600160a01b03831681526080810161123a6020830184611a28565b606081016105f38284611a28565b600082516121e7818460208701611b43565b9190910192915050565b60208152600061123a6020830184611b6756fea2646970667358221220dc5c716d433d01fe5fab70a68976838006286e5c206d4c55073c0f6dcc5ff68d64736f6c63430008140033",
  "linkReferences": {},
  "deployedLinkReferences": {},
  "contracts": {
    "43113": "0x96120cBa6C7D933e06C290cC0BBE41ce17194c1F",
    "11155111": "0x2B5474bCCCae8C9cce8D70Ed0e24B8D3797b2BAD",
    "2442": "",
    "80002": "",
    "84532": ""
  },
  "DestinationSelector": {
    "43113": 14767482510784806043,
    "11155111": 16015286601757825753,
    "2442": 16281711391670634445,
    "80002": 16281711391670634445,
    "84532": 10344971235874465080
  }
}